{
    "_format": "hh-sol-artifact-1",
    "contractName": "dAuthApp",
    "sourceName": "contracts/dAuthApp.sol",
    "abi": [
        {
            "inputs": [
                {
                    "internalType": "uint256",
                    "name": "count",
                    "type": "uint256"
                }
            ],
            "stateMutability": "nonpayable",
            "type": "constructor"
        },
        {
            "anonymous": false,
            "inputs": [
                {
                    "indexed": true,
                    "internalType": "address",
                    "name": "owner",
                    "type": "address"
                },
                {
                    "indexed": true,
                    "internalType": "address",
                    "name": "approved",
                    "type": "address"
                },
                {
                    "indexed": true,
                    "internalType": "uint256",
                    "name": "tokenId",
                    "type": "uint256"
                }
            ],
            "name": "Approval",
            "type": "event"
        },
        {
            "anonymous": false,
            "inputs": [
                {
                    "indexed": true,
                    "internalType": "address",
                    "name": "owner",
                    "type": "address"
                },
                {
                    "indexed": true,
                    "internalType": "address",
                    "name": "operator",
                    "type": "address"
                },
                {
                    "indexed": false,
                    "internalType": "bool",
                    "name": "approved",
                    "type": "bool"
                }
            ],
            "name": "ApprovalForAll",
            "type": "event"
        },
        {
            "anonymous": false,
            "inputs": [
                {
                    "indexed": false,
                    "internalType": "uint256",
                    "name": "id",
                    "type": "uint256"
                },
                {
                    "indexed": false,
                    "internalType": "string",
                    "name": "reason",
                    "type": "string"
                }
            ],
            "name": "AuthNFTInvalidated",
            "type": "event"
        },
        {
            "anonymous": false,
            "inputs": [
                {
                    "indexed": true,
                    "internalType": "address",
                    "name": "receiver",
                    "type": "address"
                },
                {
                    "indexed": true,
                    "internalType": "address",
                    "name": "signer",
                    "type": "address"
                },
                {
                    "indexed": false,
                    "internalType": "uint256",
                    "name": "id",
                    "type": "uint256"
                }
            ],
            "name": "AuthNFTMinted",
            "type": "event"
        },
        {
            "anonymous": false,
            "inputs": [
                {
                    "indexed": true,
                    "internalType": "address",
                    "name": "signer",
                    "type": "address"
                },
                {
                    "indexed": false,
                    "internalType": "string",
                    "name": "name",
                    "type": "string"
                }
            ],
            "name": "AuthNFTSignerAdded",
            "type": "event"
        },
        {
            "anonymous": false,
            "inputs": [
                {
                    "indexed": true,
                    "internalType": "address",
                    "name": "signer",
                    "type": "address"
                },
                {
                    "indexed": false,
                    "internalType": "string",
                    "name": "name",
                    "type": "string"
                },
                {
                    "indexed": false,
                    "internalType": "uint256",
                    "name": "timestamp",
                    "type": "uint256"
                }
            ],
            "name": "AuthNFTSignerInvalidated",
            "type": "event"
        },
        {
            "anonymous": false,
            "inputs": [
                {
                    "indexed": true,
                    "internalType": "address",
                    "name": "operator",
                    "type": "address"
                },
                {
                    "indexed": true,
                    "internalType": "address",
                    "name": "receiver",
                    "type": "address"
                },
                {
                    "indexed": true,
                    "internalType": "address",
                    "name": "twoFAsigner",
                    "type": "address"
                },
                {
                    "indexed": false,
                    "internalType": "uint256",
                    "name": "id",
                    "type": "uint256"
                }
            ],
            "name": "AuthNFTTransfered",
            "type": "event"
        },
        {
            "anonymous": false,
            "inputs": [
                {
                    "indexed": true,
                    "internalType": "address",
                    "name": "owner",
                    "type": "address"
                },
                {
                    "indexed": true,
                    "internalType": "address",
                    "name": "signer",
                    "type": "address"
                },
                {
                    "indexed": false,
                    "internalType": "string",
                    "name": "ipfsPath",
                    "type": "string"
                }
            ],
            "name": "AuthNFTUpdated",
            "type": "event"
        },
        {
            "anonymous": false,
            "inputs": [
                {
                    "indexed": true,
                    "internalType": "address",
                    "name": "operator",
                    "type": "address"
                },
                {
                    "indexed": true,
                    "internalType": "address",
                    "name": "to",
                    "type": "address"
                },
                {
                    "indexed": false,
                    "internalType": "uint256",
                    "name": "amount",
                    "type": "uint256"
                }
            ],
            "name": "EthersWithdrawn",
            "type": "event"
        },
        {
            "anonymous": false,
            "inputs": [
                {
                    "indexed": true,
                    "internalType": "address",
                    "name": "previousOwner",
                    "type": "address"
                },
                {
                    "indexed": true,
                    "internalType": "address",
                    "name": "newOwner",
                    "type": "address"
                }
            ],
            "name": "OwnershipTransferred",
            "type": "event"
        },
        {
            "anonymous": false,
            "inputs": [
                {
                    "indexed": true,
                    "internalType": "address",
                    "name": "from",
                    "type": "address"
                },
                {
                    "indexed": true,
                    "internalType": "address",
                    "name": "to",
                    "type": "address"
                },
                {
                    "indexed": true,
                    "internalType": "uint256",
                    "name": "tokenId",
                    "type": "uint256"
                }
            ],
            "name": "Transfer",
            "type": "event"
        },
        {
            "inputs": [
                {
                    "internalType": "address",
                    "name": "signer",
                    "type": "address"
                },
                {
                    "internalType": "string",
                    "name": "name",
                    "type": "string"
                }
            ],
            "name": "addSigner",
            "outputs": [],
            "stateMutability": "nonpayable",
            "type": "function"
        },
        {
            "inputs": [
                {
                    "internalType": "address",
                    "name": "to",
                    "type": "address"
                },
                {
                    "internalType": "uint256",
                    "name": "tokenId",
                    "type": "uint256"
                }
            ],
            "name": "approve",
            "outputs": [],
            "stateMutability": "nonpayable",
            "type": "function"
        },
        {
            "inputs": [
                {
                    "internalType": "address",
                    "name": "owner",
                    "type": "address"
                }
            ],
            "name": "balanceOf",
            "outputs": [
                {
                    "internalType": "uint256",
                    "name": "",
                    "type": "uint256"
                }
            ],
            "stateMutability": "view",
            "type": "function"
        },
        {
            "inputs": [
                {
                    "internalType": "address",
                    "name": "signer",
                    "type": "address"
                }
            ],
            "name": "canSign",
            "outputs": [
                {
                    "internalType": "bool",
                    "name": "",
                    "type": "bool"
                }
            ],
            "stateMutability": "view",
            "type": "function"
        },
        {
            "inputs": [
                {
                    "internalType": "address",
                    "name": "signer",
                    "type": "address"
                },
                {
                    "internalType": "uint256",
                    "name": "timestamp",
                    "type": "uint256"
                }
            ],
            "name": "canSignAt",
            "outputs": [
                {
                    "internalType": "bool",
                    "name": "",
                    "type": "bool"
                }
            ],
            "stateMutability": "view",
            "type": "function"
        },
        {
            "inputs": [
                {
                    "internalType": "uint256",
                    "name": "tokenID",
                    "type": "uint256"
                }
            ],
            "name": "checkInvalidated",
            "outputs": [
                {
                    "internalType": "bool",
                    "name": "",
                    "type": "bool"
                }
            ],
            "stateMutability": "view",
            "type": "function"
        },
        {
            "inputs": [
                {
                    "internalType": "uint256",
                    "name": "tokenId",
                    "type": "uint256"
                }
            ],
            "name": "getApproved",
            "outputs": [
                {
                    "internalType": "address",
                    "name": "",
                    "type": "address"
                }
            ],
            "stateMutability": "view",
            "type": "function"
        },
        {
            "inputs": [
                {
                    "internalType": "address",
                    "name": "signer",
                    "type": "address"
                }
            ],
            "name": "getSignerName",
            "outputs": [
                {
                    "internalType": "string",
                    "name": "",
                    "type": "string"
                }
            ],
            "stateMutability": "view",
            "type": "function"
        },
        {
            "inputs": [
                {
                    "internalType": "address",
                    "name": "addr",
                    "type": "address"
                }
            ],
            "name": "hasMinted",
            "outputs": [
                {
                    "internalType": "bool",
                    "name": "",
                    "type": "bool"
                }
            ],
            "stateMutability": "view",
            "type": "function"
        },
        {
            "inputs": [
                {
                    "internalType": "uint256[]",
                    "name": "tokenIDs",
                    "type": "uint256[]"
                },
                {
                    "internalType": "string",
                    "name": "reason",
                    "type": "string"
                }
            ],
            "name": "invalidateNFTs",
            "outputs": [],
            "stateMutability": "nonpayable",
            "type": "function"
        },
        {
            "inputs": [
                {
                    "internalType": "address",
                    "name": "signer",
                    "type": "address"
                }
            ],
            "name": "invalidateSigner",
            "outputs": [],
            "stateMutability": "nonpayable",
            "type": "function"
        },
        {
            "inputs": [
                {
                    "internalType": "address",
                    "name": "owner",
                    "type": "address"
                },
                {
                    "internalType": "address",
                    "name": "operator",
                    "type": "address"
                }
            ],
            "name": "isApprovedForAll",
            "outputs": [
                {
                    "internalType": "bool",
                    "name": "",
                    "type": "bool"
                }
            ],
            "stateMutability": "view",
            "type": "function"
        },
        {
            "inputs": [
                {
                    "internalType": "address",
                    "name": "signer",
                    "type": "address"
                },
                {
                    "internalType": "string",
                    "name": "ipfsPath",
                    "type": "string"
                },
                {
                    "internalType": "uint8",
                    "name": "v",
                    "type": "uint8"
                },
                {
                    "internalType": "bytes32",
                    "name": "r",
                    "type": "bytes32"
                },
                {
                    "internalType": "bytes32",
                    "name": "s",
                    "type": "bytes32"
                }
            ],
            "name": "mintAuthNFT",
            "outputs": [
                {
                    "internalType": "uint256",
                    "name": "",
                    "type": "uint256"
                }
            ],
            "stateMutability": "payable",
            "type": "function"
        },
        {
            "inputs": [
                {
                    "internalType": "address",
                    "name": "addr",
                    "type": "address"
                }
            ],
            "name": "mintedBy",
            "outputs": [
                {
                    "internalType": "uint256",
                    "name": "",
                    "type": "uint256"
                }
            ],
            "stateMutability": "view",
            "type": "function"
        },
        {
            "inputs": [],
            "name": "mintingEnabled",
            "outputs": [
                {
                    "internalType": "bool",
                    "name": "",
                    "type": "bool"
                }
            ],
            "stateMutability": "view",
            "type": "function"
        },
        {
            "inputs": [],
            "name": "mintingFee",
            "outputs": [
                {
                    "internalType": "uint256",
                    "name": "",
                    "type": "uint256"
                }
            ],
            "stateMutability": "view",
            "type": "function"
        },
        {
            "inputs": [],
            "name": "name",
            "outputs": [
                {
                    "internalType": "string",
                    "name": "",
                    "type": "string"
                }
            ],
            "stateMutability": "view",
            "type": "function"
        },
        {
            "inputs": [],
            "name": "owner",
            "outputs": [
                {
                    "internalType": "address",
                    "name": "",
                    "type": "address"
                }
            ],
            "stateMutability": "view",
            "type": "function"
        },
        {
            "inputs": [
                {
                    "internalType": "uint256",
                    "name": "tokenId",
                    "type": "uint256"
                }
            ],
            "name": "ownerOf",
            "outputs": [
                {
                    "internalType": "address",
                    "name": "",
                    "type": "address"
                }
            ],
            "stateMutability": "view",
            "type": "function"
        },
        {
            "inputs": [
                {
                    "internalType": "string",
                    "name": "message",
                    "type": "string"
                },
                {
                    "internalType": "uint8",
                    "name": "v",
                    "type": "uint8"
                },
                {
                    "internalType": "bytes32",
                    "name": "r",
                    "type": "bytes32"
                },
                {
                    "internalType": "bytes32",
                    "name": "s",
                    "type": "bytes32"
                }
            ],
            "name": "recoverSigner",
            "outputs": [
                {
                    "internalType": "address",
                    "name": "signer",
                    "type": "address"
                }
            ],
            "stateMutability": "pure",
            "type": "function"
        },
        {
            "inputs": [],
            "name": "renounceOwnership",
            "outputs": [],
            "stateMutability": "nonpayable",
            "type": "function"
        },
        {
            "inputs": [
                {
                    "internalType": "address",
                    "name": "from",
                    "type": "address"
                },
                {
                    "internalType": "address",
                    "name": "to",
                    "type": "address"
                },
                {
                    "internalType": "uint256",
                    "name": "tokenId",
                    "type": "uint256"
                }
            ],
            "name": "safeTransferFrom",
            "outputs": [],
            "stateMutability": "nonpayable",
            "type": "function"
        },
        {
            "inputs": [
                {
                    "internalType": "address",
                    "name": "from",
                    "type": "address"
                },
                {
                    "internalType": "address",
                    "name": "to",
                    "type": "address"
                },
                {
                    "internalType": "uint256",
                    "name": "tokenId",
                    "type": "uint256"
                },
                {
                    "internalType": "bytes",
                    "name": "_data",
                    "type": "bytes"
                }
            ],
            "name": "safeTransferFrom",
            "outputs": [],
            "stateMutability": "nonpayable",
            "type": "function"
        },
        {
            "inputs": [
                {
                    "internalType": "address",
                    "name": "operator",
                    "type": "address"
                },
                {
                    "internalType": "bool",
                    "name": "approved",
                    "type": "bool"
                }
            ],
            "name": "setApprovalForAll",
            "outputs": [],
            "stateMutability": "nonpayable",
            "type": "function"
        },
        {
            "inputs": [
                {
                    "internalType": "uint256",
                    "name": "newValue",
                    "type": "uint256"
                }
            ],
            "name": "setMintingFee",
            "outputs": [],
            "stateMutability": "nonpayable",
            "type": "function"
        },
        {
            "inputs": [
                {
                    "internalType": "address",
                    "name": "signer",
                    "type": "address"
                },
                {
                    "internalType": "string",
                    "name": "hash",
                    "type": "string"
                },
                {
                    "internalType": "uint8",
                    "name": "v",
                    "type": "uint8"
                },
                {
                    "internalType": "bytes32",
                    "name": "r",
                    "type": "bytes32"
                },
                {
                    "internalType": "bytes32",
                    "name": "s",
                    "type": "bytes32"
                }
            ],
            "name": "signatureValid",
            "outputs": [
                {
                    "internalType": "bool",
                    "name": "",
                    "type": "bool"
                }
            ],
            "stateMutability": "view",
            "type": "function"
        },
        {
            "inputs": [
                {
                    "internalType": "bytes4",
                    "name": "interfaceId",
                    "type": "bytes4"
                }
            ],
            "name": "supportsInterface",
            "outputs": [
                {
                    "internalType": "bool",
                    "name": "",
                    "type": "bool"
                }
            ],
            "stateMutability": "view",
            "type": "function"
        },
        {
            "inputs": [],
            "name": "symbol",
            "outputs": [
                {
                    "internalType": "string",
                    "name": "",
                    "type": "string"
                }
            ],
            "stateMutability": "view",
            "type": "function"
        },
        {
            "inputs": [
                {
                    "internalType": "bool",
                    "name": "enabled",
                    "type": "bool"
                }
            ],
            "name": "toggleMintingEnabled",
            "outputs": [],
            "stateMutability": "nonpayable",
            "type": "function"
        },
        {
            "inputs": [
                {
                    "internalType": "uint256",
                    "name": "tokenId",
                    "type": "uint256"
                }
            ],
            "name": "tokenURI",
            "outputs": [
                {
                    "internalType": "string",
                    "name": "",
                    "type": "string"
                }
            ],
            "stateMutability": "view",
            "type": "function"
        },
        {
            "inputs": [],
            "name": "totalTokenCount",
            "outputs": [
                {
                    "internalType": "uint256",
                    "name": "",
                    "type": "uint256"
                }
            ],
            "stateMutability": "view",
            "type": "function"
        },
        {
            "inputs": [
                {
                    "internalType": "address",
                    "name": "from",
                    "type": "address"
                },
                {
                    "internalType": "address",
                    "name": "to",
                    "type": "address"
                },
                {
                    "internalType": "uint256",
                    "name": "tokenId",
                    "type": "uint256"
                }
            ],
            "name": "transferFrom",
            "outputs": [],
            "stateMutability": "nonpayable",
            "type": "function"
        },
        {
            "inputs": [
                {
                    "internalType": "address",
                    "name": "newOwner",
                    "type": "address"
                }
            ],
            "name": "transferOwnership",
            "outputs": [],
            "stateMutability": "nonpayable",
            "type": "function"
        },
        {
            "inputs": [
                {
                    "internalType": "address",
                    "name": "signer",
                    "type": "address"
                },
                {
                    "internalType": "string",
                    "name": "ipfsPath",
                    "type": "string"
                },
                {
                    "internalType": "uint256",
                    "name": "tokenId",
                    "type": "uint256"
                },
                {
                    "internalType": "uint8",
                    "name": "v",
                    "type": "uint8"
                },
                {
                    "internalType": "bytes32",
                    "name": "r",
                    "type": "bytes32"
                },
                {
                    "internalType": "bytes32",
                    "name": "s",
                    "type": "bytes32"
                }
            ],
            "name": "updateAuthNFT",
            "outputs": [],
            "stateMutability": "nonpayable",
            "type": "function"
        },
        {
            "inputs": [
                {
                    "internalType": "uint256",
                    "name": "amount",
                    "type": "uint256"
                },
                {
                    "internalType": "address payable",
                    "name": "to",
                    "type": "address"
                }
            ],
            "name": "withdrawEthers",
            "outputs": [],
            "stateMutability": "nonpayable",
            "type": "function"
        }
    ],
    "bytecode": "0x60806040526001600f60006101000a81548160ff0219169083151502179055506040518060400160405280600781526020017f697066733a2f2f00000000000000000000000000000000000000000000000000815250601090805190602001906200006c92919062000241565b5060006011553480156200007f57600080fd5b506040516200490d3803806200490d8339818101604052810190620000a5919062000308565b6040518060400160405280600c81526020017f644175746841707020312e3000000000000000000000000000000000000000008152506040518060400160405280600581526020017f644175746800000000000000000000000000000000000000000000000000000081525081600090805190602001906200012992919062000241565b5080600190805190602001906200014292919062000241565b50505062000165620001596200017360201b60201c565b6200017b60201b60201c565b8060128190555050620003bd565b600033905090565b6000600660009054906101000a900473ffffffffffffffffffffffffffffffffffffffff16905081600660006101000a81548173ffffffffffffffffffffffffffffffffffffffff021916908373ffffffffffffffffffffffffffffffffffffffff1602179055508173ffffffffffffffffffffffffffffffffffffffff168173ffffffffffffffffffffffffffffffffffffffff167f8be0079c531659141344cd1fd0a4f28419497f9722a3daafe3b4186f6b6457e060405160405180910390a35050565b8280546200024f906200033e565b90600052602060002090601f016020900481019282620002735760008555620002bf565b82601f106200028e57805160ff1916838001178555620002bf565b82800160010185558215620002bf579182015b82811115620002be578251825591602001919060010190620002a1565b5b509050620002ce9190620002d2565b5090565b5b80821115620002ed576000816000905550600101620002d3565b5090565b6000815190506200030281620003a3565b92915050565b6000602082840312156200031b57600080fd5b60006200032b84828501620002f1565b91505092915050565b6000819050919050565b600060028204905060018216806200035757607f821691505b602082108114156200036e576200036d62000374565b5b50919050565b7f4e487b7100000000000000000000000000000000000000000000000000000000600052602260045260246000fd5b620003ae8162000334565b8114620003ba57600080fd5b50565b61454080620003cd6000396000f3fe6080604052600436106102045760003560e01c8063715018a611610118578063b88d4fde116100a0578063d6ff505f1161006f578063d6ff505f146107b4578063e985e9c5146107f1578063edab17b61461082e578063f2fde38b1461086b578063fe8adae11461089457610204565b8063b88d4fde146106fc578063bd6820f214610725578063c87b56dd1461074e578063ca167c941461078b57610204565b80638da5cb5b116100e75780638da5cb5b1461061557806395d89b41146106405780639dba9aa11461066b5780639fd6db12146106a8578063a22cb465146106d357610204565b8063715018a614610559578063764912ef146105705780637ef305201461059b5780638ac71b04146105d857610204565b80632a6e5e111161019b57806343df339d1161016a57806343df339d1461045b5780635a64ad95146104845780635f9e2cc2146104af5780636352211e146104df57806370a082311461051c57610204565b80632a6e5e111461038f57806338e21cce146103b85780633cef28d2146103f557806342842e0e1461043257610204565b80631e88c357116101d75780631e88c357146102d7578063238a47091461030057806323b872dd146103295780632785e9371461035257610204565b806301ffc9a71461020957806306fdde0314610246578063081812fc14610271578063095ea7b3146102ae575b600080fd5b34801561021557600080fd5b50610230600480360381019061022b9190613131565b6108bd565b60405161023d9190613cb8565b60405180910390f35b34801561025257600080fd5b5061025b61099f565b6040516102689190613d18565b60405180910390f35b34801561027d57600080fd5b50610298600480360381019061029391906131d5565b610a31565b6040516102a59190613c43565b60405180910390f35b3480156102ba57600080fd5b506102d560048036038101906102d09190613033565b610ab6565b005b3480156102e357600080fd5b506102fe60048036038101906102f99190612f03565b610afb565b005b34801561030c57600080fd5b50610327600480360381019061032291906131d5565b610ee7565b005b34801561033557600080fd5b50610350600480360381019061034b9190612da9565b610f6d565b005b34801561035e57600080fd5b506103796004803603810190610374919061315a565b610fb3565b6040516103869190613c43565b60405180910390f35b34801561039b57600080fd5b506103b660048036038101906103b191906131fe565b611162565b005b3480156103c457600080fd5b506103df60048036038101906103da9190612d1b565b611277565b6040516103ec9190613cb8565b60405180910390f35b34801561040157600080fd5b5061041c60048036038101906104179190612d1b565b6112c8565b604051610429919061400a565b60405180910390f35b34801561043e57600080fd5b5061045960048036038101906104549190612da9565b611311565b005b34801561046757600080fd5b50610482600480360381019061047d9190612eaf565b611357565b005b34801561049057600080fd5b5061049961154b565b6040516104a6919061400a565b60405180910390f35b6104c960048036038101906104c49190612fa4565b611555565b6040516104d6919061400a565b60405180910390f35b3480156104eb57600080fd5b50610506600480360381019061050191906131d5565b611887565b6040516105139190613c43565b60405180910390f35b34801561052857600080fd5b50610543600480360381019061053e9190612d1b565b611939565b604051610550919061400a565b60405180910390f35b34801561056557600080fd5b5061056e6119f1565b005b34801561057c57600080fd5b50610585611a79565b604051610592919061400a565b60405180910390f35b3480156105a757600080fd5b506105c260048036038101906105bd9190612d1b565b611a83565b6040516105cf9190613cb8565b60405180910390f35b3480156105e457600080fd5b506105ff60048036038101906105fa91906131d5565b611b25565b60405161060c9190613cb8565b60405180910390f35b34801561062157600080fd5b5061062a611b4f565b6040516106379190613c43565b60405180910390f35b34801561064c57600080fd5b50610655611b79565b6040516106629190613d18565b60405180910390f35b34801561067757600080fd5b50610692600480360381019061068d9190613033565b611c0b565b60405161069f9190613cb8565b60405180910390f35b3480156106b457600080fd5b506106bd611d41565b6040516106ca9190613cb8565b60405180910390f35b3480156106df57600080fd5b506106fa60048036038101906106f59190612e73565b611d58565b005b34801561070857600080fd5b50610723600480360381019061071e9190612df8565b611d9d565b005b34801561073157600080fd5b5061074c6004803603810190610747919061306f565b611de4565b005b34801561075a57600080fd5b50610775600480360381019061077091906131d5565b611ff1565b6040516107829190613d18565b60405180910390f35b34801561079757600080fd5b506107b260048036038101906107ad9190612d1b565b612074565b005b3480156107c057600080fd5b506107db60048036038101906107d69190612fa4565b6122d5565b6040516107e89190613cb8565b60405180910390f35b3480156107fd57600080fd5b5061081860048036038101906108139190612d6d565b61231c565b6040516108259190613cb8565b60405180910390f35b34801561083a57600080fd5b5061085560048036038101906108509190612d1b565b6123b0565b6040516108629190613d18565b60405180910390f35b34801561087757600080fd5b50610892600480360381019061088d9190612d1b565b612481565b005b3480156108a057600080fd5b506108bb60048036038101906108b691906130df565b612579565b005b60007f80ac58cd000000000000000000000000000000000000000000000000000000007bffffffffffffffffffffffffffffffffffffffffffffffffffffffff1916827bffffffffffffffffffffffffffffffffffffffffffffffffffffffff1916148061098857507f5b5e139f000000000000000000000000000000000000000000000000000000007bffffffffffffffffffffffffffffffffffffffffffffffffffffffff1916827bffffffffffffffffffffffffffffffffffffffffffffffffffffffff1916145b80610998575061099782612612565b5b9050919050565b6060600080546109ae90614321565b80601f01602080910402602001604051908101604052809291908181526020018280546109da90614321565b8015610a275780601f106109fc57610100808354040283529160200191610a27565b820191906000526020600020905b815481529060010190602001808311610a0a57829003601f168201915b5050505050905090565b6000610a3c8261267c565b610a7b576040517f08c379a0000000000000000000000000000000000000000000000000000000008152600401610a7290613f0a565b60405180910390fd5b6004600083815260200190815260200160002060009054906101000a900473ffffffffffffffffffffffffffffffffffffffff169050919050565b6000610af7576040517f08c379a0000000000000000000000000000000000000000000000000000000008152600401610aee90613d6a565b60405180910390fd5b5050565b3073ffffffffffffffffffffffffffffffffffffffff1663d6ff505f87878686866040518663ffffffff1660e01b8152600401610b3c959493929190613c5e565b60206040518083038186803b158015610b5457600080fd5b505afa158015610b68573d6000803e3d6000fd5b505050506040513d601f19601f82011682018060405250810190610b8c9190613108565b610bcb576040517f08c379a0000000000000000000000000000000000000000000000000000000008152600401610bc290613f8a565b60405180910390fd5b3073ffffffffffffffffffffffffffffffffffffffff16636352211e856040518263ffffffff1660e01b8152600401610c04919061400a565b60206040518083038186803b158015610c1c57600080fd5b505afa158015610c30573d6000803e3d6000fd5b505050506040513d601f19601f82011682018060405250810190610c549190612d44565b73ffffffffffffffffffffffffffffffffffffffff163373ffffffffffffffffffffffffffffffffffffffff1614610cc1576040517f08c379a0000000000000000000000000000000000000000000000000000000008152600401610cb890613f2a565b60405180910390fd5b3073ffffffffffffffffffffffffffffffffffffffff16638ac71b04856040518263ffffffff1660e01b8152600401610cfa919061400a565b60206040518083038186803b158015610d1257600080fd5b505afa158015610d26573d6000803e3d6000fd5b505050506040513d601f19601f82011682018060405250810190610d4a9190613108565b15610d8a576040517f08c379a0000000000000000000000000000000000000000000000000000000008152600401610d8190613e8a565b60405180910390fd5b3073ffffffffffffffffffffffffffffffffffffffff16637ef30520876040518263ffffffff1660e01b8152600401610dc39190613c43565b60206040518083038186803b158015610ddb57600080fd5b505afa158015610def573d6000803e3d6000fd5b505050506040513d601f19601f82011682018060405250810190610e139190613108565b610e52576040517f08c379a0000000000000000000000000000000000000000000000000000000008152600401610e4990613d8a565b60405180910390fd5b84600a60008681526020019081526020016000209080519060200190610e79929190612aa1565b508573ffffffffffffffffffffffffffffffffffffffff163373ffffffffffffffffffffffffffffffffffffffff167f23ba8eee24e41bf014f4644bd93f2ead7955b08444549685dd12fb2e2e0c65a787604051610ed79190613d18565b60405180910390a3505050505050565b610eef6126e8565b73ffffffffffffffffffffffffffffffffffffffff16610f0d611b4f565b73ffffffffffffffffffffffffffffffffffffffff1614610f63576040517f08c379a0000000000000000000000000000000000000000000000000000000008152600401610f5a90613f4a565b60405180910390fd5b8060118190555050565b6000610fae576040517f08c379a0000000000000000000000000000000000000000000000000000000008152600401610fa590613d6a565b60405180910390fd5b505050565b6000806040518060400160405280602081526020017f19457468657265756d205369676e6564204d6573736167653a0a303030303030815250905060008087519050603983019150620f423f81111561100b57600080fd5b600080620186a090505b600081146110b1576000818461102b9190614183565b9050600081141561105557600083141561105457600a8261104c9190614183565b915050611015565b5b828061106090614353565b935050818161106f91906141b4565b8461107a919061420e565b9350600a826110899190614183565b9150603081611098919061412d565b905084806110a590614353565b95505080855350611015565b60008214156110c357601b91506110d3565b601a826110d0919061412d565b91505b8185526000858b6040516020016110eb929190613be8565b6040516020818303038152906040528051906020012090506001818b8b8b604051600081526020016040526040516111269493929190613cd3565b6020604051602081039080840390855afa158015611148573d6000803e3d6000fd5b505050602060405103519650505050505050949350505050565b61116a6126e8565b73ffffffffffffffffffffffffffffffffffffffff16611188611b4f565b73ffffffffffffffffffffffffffffffffffffffff16146111de576040517f08c379a00000000000000000000000000000000000000000000000000000000081526004016111d590613f4a565b60405180910390fd5b611207828273ffffffffffffffffffffffffffffffffffffffff166126f090919063ffffffff16565b8073ffffffffffffffffffffffffffffffffffffffff166112266126e8565b73ffffffffffffffffffffffffffffffffffffffff167f372bb9ce23c45af0229f3ad425305ebadfb790c0b0453fa3077a02d7d8c987bb8460405161126b919061400a565b60405180910390a35050565b60006112c1600960008473ffffffffffffffffffffffffffffffffffffffff1673ffffffffffffffffffffffffffffffffffffffff1681526020019081526020016000205461267c565b9050919050565b6000600960008373ffffffffffffffffffffffffffffffffffffffff1673ffffffffffffffffffffffffffffffffffffffff168152602001908152602001600020549050919050565b6000611352576040517f08c379a000000000000000000000000000000000000000000000000000000000815260040161134990613d6a565b60405180910390fd5b505050565b61135f6126e8565b73ffffffffffffffffffffffffffffffffffffffff1661137d611b4f565b73ffffffffffffffffffffffffffffffffffffffff16146113d3576040517f08c379a00000000000000000000000000000000000000000000000000000000081526004016113ca90613f4a565b60405180910390fd5b6000600b60008473ffffffffffffffffffffffffffffffffffffffff1673ffffffffffffffffffffffffffffffffffffffff168152602001908152602001600020805461141f90614321565b905014611461576040517f08c379a000000000000000000000000000000000000000000000000000000000815260040161145890613eaa565b60405180910390fd5b80600b60008473ffffffffffffffffffffffffffffffffffffffff1673ffffffffffffffffffffffffffffffffffffffff16815260200190815260200160002090805190602001906114b4929190612aa1565b5042600c60008473ffffffffffffffffffffffffffffffffffffffff1673ffffffffffffffffffffffffffffffffffffffff168152602001908152602001600020819055508173ffffffffffffffffffffffffffffffffffffffff167fc7da609f9d6a478b78547f935d667444113e7b50762c9206dd18efabb10639ae8260405161153f9190613d18565b60405180910390a25050565b6000601154905090565b60003073ffffffffffffffffffffffffffffffffffffffff16637ef30520876040518263ffffffff1660e01b81526004016115909190613c43565b60206040518083038186803b1580156115a857600080fd5b505afa1580156115bc573d6000803e3d6000fd5b505050506040513d601f19601f820116820180604052508101906115e09190613108565b61161f576040517f08c379a000000000000000000000000000000000000000000000000000000000815260040161161690613d8a565b60405180910390fd5b61162833611277565b15611668576040517f08c379a000000000000000000000000000000000000000000000000000000000815260040161165f90613faa565b60405180910390fd5b600f60009054906101000a900460ff166116b7576040517f08c379a00000000000000000000000000000000000000000000000000000000081526004016116ae90613fca565b60405180910390fd5b3073ffffffffffffffffffffffffffffffffffffffff1663d6ff505f87878787876040518663ffffffff1660e01b81526004016116f8959493929190613c5e565b60206040518083038186803b15801561171057600080fd5b505afa158015611724573d6000803e3d6000fd5b505050506040513d601f19601f820116820180604052508101906117489190613108565b611787576040517f08c379a000000000000000000000000000000000000000000000000000000000815260040161177e90613f8a565b60405180910390fd5b61179160076127e4565b600061179d60076127fa565b90506117a93382612808565b80600960003373ffffffffffffffffffffffffffffffffffffffff1673ffffffffffffffffffffffffffffffffffffffff1681526020019081526020016000208190555085600a60008381526020019081526020016000209080519060200190611814929190612aa1565b508673ffffffffffffffffffffffffffffffffffffffff163373ffffffffffffffffffffffffffffffffffffffff167fcbf527a191e30ef47bdfd31a29dc21a4ec1b8ffe59414dc588f836c022941ab583604051611872919061400a565b60405180910390a38091505095945050505050565b6000806002600084815260200190815260200160002060009054906101000a900473ffffffffffffffffffffffffffffffffffffffff169050600073ffffffffffffffffffffffffffffffffffffffff168173ffffffffffffffffffffffffffffffffffffffff161415611930576040517f08c379a000000000000000000000000000000000000000000000000000000000815260040161192790613e6a565b60405180910390fd5b80915050919050565b60008073ffffffffffffffffffffffffffffffffffffffff168273ffffffffffffffffffffffffffffffffffffffff1614156119aa576040517f08c379a00000000000000000000000000000000000000000000000000000000081526004016119a190613e4a565b60405180910390fd5b600360008373ffffffffffffffffffffffffffffffffffffffff1673ffffffffffffffffffffffffffffffffffffffff168152602001908152602001600020549050919050565b6119f96126e8565b73ffffffffffffffffffffffffffffffffffffffff16611a17611b4f565b73ffffffffffffffffffffffffffffffffffffffff1614611a6d576040517f08c379a0000000000000000000000000000000000000000000000000000000008152600401611a6490613f4a565b60405180910390fd5b611a7760006129d6565b565b6000601254905090565b600080600b60008473ffffffffffffffffffffffffffffffffffffffff1673ffffffffffffffffffffffffffffffffffffffff1681526020019081526020016000208054611ad090614321565b9050118015611b1e57506000600d60008473ffffffffffffffffffffffffffffffffffffffff1673ffffffffffffffffffffffffffffffffffffffff16815260200190815260200160002054145b9050919050565b6000600e600083815260200190815260200160002060009054906101000a900460ff169050919050565b6000600660009054906101000a900473ffffffffffffffffffffffffffffffffffffffff16905090565b606060018054611b8890614321565b80601f0160208091040260200160405190810160405280929190818152602001828054611bb490614321565b8015611c015780601f10611bd657610100808354040283529160200191611c01565b820191906000526020600020905b815481529060010190602001808311611be457829003601f168201915b5050505050905090565b600080600b60008573ffffffffffffffffffffffffffffffffffffffff1673ffffffffffffffffffffffffffffffffffffffff1681526020019081526020016000208054611c5890614321565b9050118015611cef57506000600d60008573ffffffffffffffffffffffffffffffffffffffff1673ffffffffffffffffffffffffffffffffffffffff168152602001908152602001600020541480611cee575081600d60008573ffffffffffffffffffffffffffffffffffffffff1673ffffffffffffffffffffffffffffffffffffffff16815260200190815260200160002054115b5b8015611d39575081600c60008573ffffffffffffffffffffffffffffffffffffffff1673ffffffffffffffffffffffffffffffffffffffff16815260200190815260200160002054105b905092915050565b6000600f60009054906101000a900460ff16905090565b6000611d99576040517f08c379a0000000000000000000000000000000000000000000000000000000008152600401611d9090613d6a565b60405180910390fd5b5050565b6000611dde576040517f08c379a0000000000000000000000000000000000000000000000000000000008152600401611dd590613d6a565b60405180910390fd5b50505050565b611dec6126e8565b73ffffffffffffffffffffffffffffffffffffffff16611e0a611b4f565b73ffffffffffffffffffffffffffffffffffffffff1614611e60576040517f08c379a0000000000000000000000000000000000000000000000000000000008152600401611e5790613f4a565b60405180910390fd5b60005b83839050811015611feb57611eb6848483818110611eaa577f4e487b7100000000000000000000000000000000000000000000000000000000600052603260045260246000fd5b9050602002013561267c565b611ef5576040517f08c379a0000000000000000000000000000000000000000000000000000000008152600401611eec90613fea565b60405180910390fd5b6001600e6000868685818110611f34577f4e487b7100000000000000000000000000000000000000000000000000000000600052603260045260246000fd5b90506020020135815260200190815260200160002060006101000a81548160ff0219169083151502179055507f8f0a68c07cca4c1d678bce83b0ee80d9bf0a4da9b2f545dad9fd0b389519e038848483818110611fba577f4e487b7100000000000000000000000000000000000000000000000000000000600052603260045260246000fd5b9050602002013583604051611fd0929190614025565b60405180910390a18080611fe390614353565b915050611e63565b50505050565b6060611ffc8261267c565b61203b576040517f08c379a000000000000000000000000000000000000000000000000000000000815260040161203290613f6a565b60405180910390fd5b600a600083815260200190815260200160002060405160200161205e9190613c0c565b6040516020818303038152906040529050919050565b61207c6126e8565b73ffffffffffffffffffffffffffffffffffffffff1661209a611b4f565b73ffffffffffffffffffffffffffffffffffffffff16146120f0576040517f08c379a00000000000000000000000000000000000000000000000000000000081526004016120e790613f4a565b60405180910390fd5b6000600b60008373ffffffffffffffffffffffffffffffffffffffff1673ffffffffffffffffffffffffffffffffffffffff168152602001908152602001600020805461213c90614321565b90501161217e576040517f08c379a000000000000000000000000000000000000000000000000000000000815260040161217590613eea565b60405180910390fd5b6000600d60008373ffffffffffffffffffffffffffffffffffffffff1673ffffffffffffffffffffffffffffffffffffffff1681526020019081526020016000205414612200576040517f08c379a00000000000000000000000000000000000000000000000000000000081526004016121f790613dea565b60405180910390fd5b42600d60008373ffffffffffffffffffffffffffffffffffffffff1673ffffffffffffffffffffffffffffffffffffffff168152602001908152602001600020819055508073ffffffffffffffffffffffffffffffffffffffff167fba707c6b73357cd3a70e2d939ec97bd3167d4e6fd55d4ee797663bd57bd7e823600b60008473ffffffffffffffffffffffffffffffffffffffff1673ffffffffffffffffffffffffffffffffffffffff168152602001908152602001600020426040516122ca929190613d3a565b60405180910390a250565b60008573ffffffffffffffffffffffffffffffffffffffff166122fa86868686610fb3565b73ffffffffffffffffffffffffffffffffffffffff1614905095945050505050565b6000600560008473ffffffffffffffffffffffffffffffffffffffff1673ffffffffffffffffffffffffffffffffffffffff16815260200190815260200160002060008373ffffffffffffffffffffffffffffffffffffffff1673ffffffffffffffffffffffffffffffffffffffff16815260200190815260200160002060009054906101000a900460ff16905092915050565b6060600b60008373ffffffffffffffffffffffffffffffffffffffff1673ffffffffffffffffffffffffffffffffffffffff16815260200190815260200160002080546123fc90614321565b80601f016020809104026020016040519081016040528092919081815260200182805461242890614321565b80156124755780601f1061244a57610100808354040283529160200191612475565b820191906000526020600020905b81548152906001019060200180831161245857829003601f168201915b50505050509050919050565b6124896126e8565b73ffffffffffffffffffffffffffffffffffffffff166124a7611b4f565b73ffffffffffffffffffffffffffffffffffffffff16146124fd576040517f08c379a00000000000000000000000000000000000000000000000000000000081526004016124f490613f4a565b60405180910390fd5b600073ffffffffffffffffffffffffffffffffffffffff168173ffffffffffffffffffffffffffffffffffffffff16141561256d576040517f08c379a000000000000000000000000000000000000000000000000000000000815260040161256490613daa565b60405180910390fd5b612576816129d6565b50565b6125816126e8565b73ffffffffffffffffffffffffffffffffffffffff1661259f611b4f565b73ffffffffffffffffffffffffffffffffffffffff16146125f5576040517f08c379a00000000000000000000000000000000000000000000000000000000081526004016125ec90613f4a565b60405180910390fd5b80600f60006101000a81548160ff02191690831515021790555050565b60007f01ffc9a7000000000000000000000000000000000000000000000000000000007bffffffffffffffffffffffffffffffffffffffffffffffffffffffff1916827bffffffffffffffffffffffffffffffffffffffffffffffffffffffff1916149050919050565b60008073ffffffffffffffffffffffffffffffffffffffff166002600084815260200190815260200160002060009054906101000a900473ffffffffffffffffffffffffffffffffffffffff1673ffffffffffffffffffffffffffffffffffffffff1614159050919050565b600033905090565b80471015612733576040517f08c379a000000000000000000000000000000000000000000000000000000000815260040161272a90613e2a565b60405180910390fd5b60008273ffffffffffffffffffffffffffffffffffffffff168260405161275990613c2e565b60006040518083038185875af1925050503d8060008114612796576040519150601f19603f3d011682016040523d82523d6000602084013e61279b565b606091505b50509050806127df576040517f08c379a00000000000000000000000000000000000000000000000000000000081526004016127d690613e0a565b60405180910390fd5b505050565b6001816000016000828254019250508190555050565b600081600001549050919050565b600073ffffffffffffffffffffffffffffffffffffffff168273ffffffffffffffffffffffffffffffffffffffff161415612878576040517f08c379a000000000000000000000000000000000000000000000000000000000815260040161286f90613eca565b60405180910390fd5b6128818161267c565b156128c1576040517f08c379a00000000000000000000000000000000000000000000000000000000081526004016128b890613dca565b60405180910390fd5b6128cd60008383612a9c565b6001600360008473ffffffffffffffffffffffffffffffffffffffff1673ffffffffffffffffffffffffffffffffffffffff168152602001908152602001600020600082825461291d919061412d565b92505081905550816002600083815260200190815260200160002060006101000a81548173ffffffffffffffffffffffffffffffffffffffff021916908373ffffffffffffffffffffffffffffffffffffffff160217905550808273ffffffffffffffffffffffffffffffffffffffff16600073ffffffffffffffffffffffffffffffffffffffff167fddf252ad1be2c89b69c2b068fc378daa952ba7f163c4a11628f55a4df523b3ef60405160405180910390a45050565b6000600660009054906101000a900473ffffffffffffffffffffffffffffffffffffffff16905081600660006101000a81548173ffffffffffffffffffffffffffffffffffffffff021916908373ffffffffffffffffffffffffffffffffffffffff1602179055508173ffffffffffffffffffffffffffffffffffffffff168173ffffffffffffffffffffffffffffffffffffffff167f8be0079c531659141344cd1fd0a4f28419497f9722a3daafe3b4186f6b6457e060405160405180910390a35050565b505050565b828054612aad90614321565b90600052602060002090601f016020900481019282612acf5760008555612b16565b82601f10612ae857805160ff1916838001178555612b16565b82800160010185558215612b16579182015b82811115612b15578251825591602001919060010190612afa565b5b509050612b239190612b27565b5090565b5b80821115612b40576000816000905550600101612b28565b5090565b6000612b57612b5284614086565b614055565b905082815260208101848484011115612b6f57600080fd5b612b7a8482856142df565b509392505050565b6000612b95612b90846140b6565b614055565b905082815260208101848484011115612bad57600080fd5b612bb88482856142df565b509392505050565b600081359050612bcf81614469565b92915050565b600081519050612be481614469565b92915050565b600081359050612bf981614480565b92915050565b60008083601f840112612c1157600080fd5b8235905067ffffffffffffffff811115612c2a57600080fd5b602083019150836020820283011115612c4257600080fd5b9250929050565b600081359050612c5881614497565b92915050565b600081519050612c6d81614497565b92915050565b600081359050612c82816144ae565b92915050565b600081359050612c97816144c5565b92915050565b600082601f830112612cae57600080fd5b8135612cbe848260208601612b44565b91505092915050565b600082601f830112612cd857600080fd5b8135612ce8848260208601612b82565b91505092915050565b600081359050612d00816144dc565b92915050565b600081359050612d15816144f3565b92915050565b600060208284031215612d2d57600080fd5b6000612d3b84828501612bc0565b91505092915050565b600060208284031215612d5657600080fd5b6000612d6484828501612bd5565b91505092915050565b60008060408385031215612d8057600080fd5b6000612d8e85828601612bc0565b9250506020612d9f85828601612bc0565b9150509250929050565b600080600060608486031215612dbe57600080fd5b6000612dcc86828701612bc0565b9350506020612ddd86828701612bc0565b9250506040612dee86828701612cf1565b9150509250925092565b60008060008060808587031215612e0e57600080fd5b6000612e1c87828801612bc0565b9450506020612e2d87828801612bc0565b9350506040612e3e87828801612cf1565b925050606085013567ffffffffffffffff811115612e5b57600080fd5b612e6787828801612c9d565b91505092959194509250565b60008060408385031215612e8657600080fd5b6000612e9485828601612bc0565b9250506020612ea585828601612c49565b9150509250929050565b60008060408385031215612ec257600080fd5b6000612ed085828601612bc0565b925050602083013567ffffffffffffffff811115612eed57600080fd5b612ef985828601612cc7565b9150509250929050565b60008060008060008060c08789031215612f1c57600080fd5b6000612f2a89828a01612bc0565b965050602087013567ffffffffffffffff811115612f4757600080fd5b612f5389828a01612cc7565b9550506040612f6489828a01612cf1565b9450506060612f7589828a01612d06565b9350506080612f8689828a01612c73565b92505060a0612f9789828a01612c73565b9150509295509295509295565b600080600080600060a08688031215612fbc57600080fd5b6000612fca88828901612bc0565b955050602086013567ffffffffffffffff811115612fe757600080fd5b612ff388828901612cc7565b945050604061300488828901612d06565b935050606061301588828901612c73565b925050608061302688828901612c73565b9150509295509295909350565b6000806040838503121561304657600080fd5b600061305485828601612bc0565b925050602061306585828601612cf1565b9150509250929050565b60008060006040848603121561308457600080fd5b600084013567ffffffffffffffff81111561309e57600080fd5b6130aa86828701612bff565b9350935050602084013567ffffffffffffffff8111156130c957600080fd5b6130d586828701612cc7565b9150509250925092565b6000602082840312156130f157600080fd5b60006130ff84828501612c49565b91505092915050565b60006020828403121561311a57600080fd5b600061312884828501612c5e565b91505092915050565b60006020828403121561314357600080fd5b600061315184828501612c88565b91505092915050565b6000806000806080858703121561317057600080fd5b600085013567ffffffffffffffff81111561318a57600080fd5b61319687828801612cc7565b94505060206131a787828801612d06565b93505060406131b887828801612c73565b92505060606131c987828801612c73565b91505092959194509250565b6000602082840312156131e757600080fd5b60006131f584828501612cf1565b91505092915050565b6000806040838503121561321157600080fd5b600061321f85828601612cf1565b925050602061323085828601612bea565b9150509250929050565b61324381614242565b82525050565b61325281614266565b82525050565b61326181614272565b82525050565b6000613272826140fb565b61327c8185614111565b935061328c8185602086016142ee565b61329581614458565b840191505092915050565b60006132ab826140fb565b6132b58185614122565b93506132c58185602086016142ee565b80840191505092915050565b600081546132de81614321565b6132e88186614111565b94506001821660008114613303576001811461331557613348565b60ff1983168652602086019350613348565b61331e856140e6565b60005b8381101561334057815481890152600182019150602081019050613321565b808801955050505b50505092915050565b6000815461335e81614321565b6133688186614122565b945060018216600081146133835760018114613394576133c7565b60ff198316865281860193506133c7565b61339d856140e6565b60005b838110156133bf578154818901526001820191506020810190506133a0565b838801955050505b50505092915050565b60006133dd604683614111565b91507f64417574684170703a205472616e73666572696e6720417574682d4e4654732060008301527f6973206e6f7420706f737369626c652120506c6561736520636865636b206f7560208301527f72204641517300000000000000000000000000000000000000000000000000006040830152606082019050919050565b6000613469603e83614111565b91507f64417574684170703a2054686973207369676e6572206973206e6f742076616c60008301527f69642120506c6561736520726570656174207468652070726f636573732100006020830152604082019050919050565b60006134cf602683614111565b91507f4f776e61626c653a206e6577206f776e657220697320746865207a65726f206160008301527f64647265737300000000000000000000000000000000000000000000000000006020830152604082019050919050565b6000613535601c83614111565b91507f4552433732313a20746f6b656e20616c7265616479206d696e746564000000006000830152602082019050919050565b6000613575602483614111565b91507f64417574684170703a205369676e657220616c726561647920696e76616c696460008301527f61746564000000000000000000000000000000000000000000000000000000006020830152604082019050919050565b60006135db603a83614111565b91507f416464726573733a20756e61626c6520746f2073656e642076616c75652c207260008301527f6563697069656e74206d617920686176652072657665727465640000000000006020830152604082019050919050565b6000613641601d83614111565b91507f416464726573733a20696e73756666696369656e742062616c616e63650000006000830152602082019050919050565b6000613681600783614122565b91507f697066733a2f2f000000000000000000000000000000000000000000000000006000830152600782019050919050565b60006136c1602a83614111565b91507f4552433732313a2062616c616e636520717565727920666f7220746865207a6560008301527f726f2061646472657373000000000000000000000000000000000000000000006020830152604082019050919050565b6000613727602983614111565b91507f4552433732313a206f776e657220717565727920666f72206e6f6e657869737460008301527f656e7420746f6b656e00000000000000000000000000000000000000000000006020830152604082019050919050565b600061378d602583614111565b91507f64417574684170703a205468697320746f6b656e2077617320696e76616c696460008301527f61746564210000000000000000000000000000000000000000000000000000006020830152604082019050919050565b60006137f3601f83614111565b91507f64417574684170703a205369676e657220616c726561647920657869737473006000830152602082019050919050565b6000613833602083614111565b91507f4552433732313a206d696e7420746f20746865207a65726f20616464726573736000830152602082019050919050565b6000613873601f83614111565b91507f64417574684170703a205369676e657220646f6573206e6f74206578697374006000830152602082019050919050565b60006138b3602c83614111565b91507f4552433732313a20617070726f76656420717565727920666f72206e6f6e657860008301527f697374656e7420746f6b656e00000000000000000000000000000000000000006020830152604082019050919050565b6000613919602e83614111565b91507f64417574684170703a20596f7520617265206e6f7420746865206f776e65722060008301527f6f66207468697320746f6b656e210000000000000000000000000000000000006020830152604082019050919050565b600061397f602083614111565b91507f4f776e61626c653a2063616c6c6572206973206e6f7420746865206f776e65726000830152602082019050919050565b60006139bf602f83614111565b91507f4552433732314d657461646174613a2055524920717565727920666f72206e6f60008301527f6e6578697374656e7420746f6b656e00000000000000000000000000000000006020830152604082019050919050565b6000613a25601983614111565b91507f64417574684170703a2057726f6e67207369676e6174757265000000000000006000830152602082019050919050565b6000613a65605f83614111565b91507f64417574684170703a20596f75206861766520616c7265616479206d696e746560008301527f64206120644175746820746f6b656e2e20546f20646f206368616e6765732c2060208301527f706c656173652075706461746520796f757220644175746820746f6b656e21006040830152606082019050919050565b6000613af1600083614106565b9150600082019050919050565b6000613b0b603f83614111565b91507f64417574684170703a204d696e74696e672069732063757272656e746c79206460008301527f697361626c65642e20506c656173652074727920616761696e206c61746572006020830152604082019050919050565b6000613b71602983614111565b91507f64417574684170703a2055524920717565727920666f72206e6f6e657869737460008301527f656e7420746f6b656e00000000000000000000000000000000000000000000006020830152604082019050919050565b613bd3816142c8565b82525050565b613be2816142d2565b82525050565b6000613bf482856132a0565b9150613c0082846132a0565b91508190509392505050565b6000613c1782613674565b9150613c238284613351565b915081905092915050565b6000613c3982613ae4565b9150819050919050565b6000602082019050613c58600083018461323a565b92915050565b600060a082019050613c73600083018861323a565b8181036020830152613c858187613267565b9050613c946040830186613bd9565b613ca16060830185613258565b613cae6080830184613258565b9695505050505050565b6000602082019050613ccd6000830184613249565b92915050565b6000608082019050613ce86000830187613258565b613cf56020830186613bd9565b613d026040830185613258565b613d0f6060830184613258565b95945050505050565b60006020820190508181036000830152613d328184613267565b905092915050565b60006040820190508181036000830152613d5481856132d1565b9050613d636020830184613bca565b9392505050565b60006020820190508181036000830152613d83816133d0565b9050919050565b60006020820190508181036000830152613da38161345c565b9050919050565b60006020820190508181036000830152613dc3816134c2565b9050919050565b60006020820190508181036000830152613de381613528565b9050919050565b60006020820190508181036000830152613e0381613568565b9050919050565b60006020820190508181036000830152613e23816135ce565b9050919050565b60006020820190508181036000830152613e4381613634565b9050919050565b60006020820190508181036000830152613e63816136b4565b9050919050565b60006020820190508181036000830152613e838161371a565b9050919050565b60006020820190508181036000830152613ea381613780565b9050919050565b60006020820190508181036000830152613ec3816137e6565b9050919050565b60006020820190508181036000830152613ee381613826565b9050919050565b60006020820190508181036000830152613f0381613866565b9050919050565b60006020820190508181036000830152613f23816138a6565b9050919050565b60006020820190508181036000830152613f438161390c565b9050919050565b60006020820190508181036000830152613f6381613972565b9050919050565b60006020820190508181036000830152613f83816139b2565b9050919050565b60006020820190508181036000830152613fa381613a18565b9050919050565b60006020820190508181036000830152613fc381613a58565b9050919050565b60006020820190508181036000830152613fe381613afe565b9050919050565b6000602082019050818103600083015261400381613b64565b9050919050565b600060208201905061401f6000830184613bca565b92915050565b600060408201905061403a6000830185613bca565b818103602083015261404c8184613267565b90509392505050565b6000604051905081810181811067ffffffffffffffff8211171561407c5761407b614429565b5b8060405250919050565b600067ffffffffffffffff8211156140a1576140a0614429565b5b601f19601f8301169050602081019050919050565b600067ffffffffffffffff8211156140d1576140d0614429565b5b601f19601f8301169050602081019050919050565b60008190508160005260206000209050919050565b600081519050919050565b600081905092915050565b600082825260208201905092915050565b600081905092915050565b6000614138826142c8565b9150614143836142c8565b9250827fffffffffffffffffffffffffffffffffffffffffffffffffffffffffffffffff038211156141785761417761439c565b5b828201905092915050565b600061418e826142c8565b9150614199836142c8565b9250826141a9576141a86143cb565b5b828204905092915050565b60006141bf826142c8565b91506141ca836142c8565b9250817fffffffffffffffffffffffffffffffffffffffffffffffffffffffffffffffff04831182151516156142035761420261439c565b5b828202905092915050565b6000614219826142c8565b9150614224836142c8565b9250828210156142375761423661439c565b5b828203905092915050565b600061424d826142a8565b9050919050565b600061425f826142a8565b9050919050565b60008115159050919050565b6000819050919050565b60007fffffffff0000000000000000000000000000000000000000000000000000000082169050919050565b600073ffffffffffffffffffffffffffffffffffffffff82169050919050565b6000819050919050565b600060ff82169050919050565b82818337600083830152505050565b60005b8381101561430c5780820151818401526020810190506142f1565b8381111561431b576000848401525b50505050565b6000600282049050600182168061433957607f821691505b6020821081141561434d5761434c6143fa565b5b50919050565b600061435e826142c8565b91507fffffffffffffffffffffffffffffffffffffffffffffffffffffffffffffffff8214156143915761439061439c565b5b600182019050919050565b7f4e487b7100000000000000000000000000000000000000000000000000000000600052601160045260246000fd5b7f4e487b7100000000000000000000000000000000000000000000000000000000600052601260045260246000fd5b7f4e487b7100000000000000000000000000000000000000000000000000000000600052602260045260246000fd5b7f4e487b7100000000000000000000000000000000000000000000000000000000600052604160045260246000fd5b6000601f19601f8301169050919050565b61447281614242565b811461447d57600080fd5b50565b61448981614254565b811461449457600080fd5b50565b6144a081614266565b81146144ab57600080fd5b50565b6144b781614272565b81146144c257600080fd5b50565b6144ce8161427c565b81146144d957600080fd5b50565b6144e5816142c8565b81146144f057600080fd5b50565b6144fc816142d2565b811461450757600080fd5b5056fea2646970667358221220f652f72366b330d5c17957053758d847fdbb215b0e96fa5c96c017dabe7616f064736f6c63430008000033",
    "linkReferences": {},
    "deployedLinkReferences": {}
}