{
  "_format": "hh-sol-artifact-1",
  "contractName": "MaxTrax",
  "sourceName": "contracts/MaxTrax.sol",
  "abi": [
    {
      "inputs": [],
      "stateMutability": "nonpayable",
      "type": "constructor"
    },
    {
      "anonymous": false,
      "inputs": [
        {
          "indexed": true,
          "internalType": "address",
          "name": "owner",
          "type": "address"
        },
        {
          "indexed": true,
          "internalType": "address",
          "name": "approved",
          "type": "address"
        },
        {
          "indexed": true,
          "internalType": "uint256",
          "name": "tokenId",
          "type": "uint256"
        }
      ],
      "name": "Approval",
      "type": "event"
    },
    {
      "anonymous": false,
      "inputs": [
        {
          "indexed": true,
          "internalType": "address",
          "name": "owner",
          "type": "address"
        },
        {
          "indexed": true,
          "internalType": "address",
          "name": "operator",
          "type": "address"
        },
        {
          "indexed": false,
          "internalType": "bool",
          "name": "approved",
          "type": "bool"
        }
      ],
      "name": "ApprovalForAll",
      "type": "event"
    },
    {
      "anonymous": false,
      "inputs": [
        {
          "indexed": false,
          "internalType": "uint256",
          "name": "id",
          "type": "uint256"
        },
        {
          "indexed": false,
          "internalType": "string",
          "name": "reason",
          "type": "string"
        }
      ],
      "name": "AuthNFTInvalidated",
      "type": "event"
    },
    {
      "anonymous": false,
      "inputs": [
        {
          "indexed": true,
          "internalType": "address",
          "name": "receiver",
          "type": "address"
        },
        {
          "indexed": true,
          "internalType": "address",
          "name": "signer",
          "type": "address"
        },
        {
          "indexed": false,
          "internalType": "uint256",
          "name": "id",
          "type": "uint256"
        }
      ],
      "name": "AuthNFTMinted",
      "type": "event"
    },
    {
      "anonymous": false,
      "inputs": [
        {
          "indexed": true,
          "internalType": "address",
          "name": "signer",
          "type": "address"
        },
        {
          "indexed": false,
          "internalType": "string",
          "name": "name",
          "type": "string"
        }
      ],
      "name": "AuthNFTSignerAdded",
      "type": "event"
    },
    {
      "anonymous": false,
      "inputs": [
        {
          "indexed": true,
          "internalType": "address",
          "name": "signer",
          "type": "address"
        },
        {
          "indexed": false,
          "internalType": "string",
          "name": "name",
          "type": "string"
        },
        {
          "indexed": false,
          "internalType": "uint256",
          "name": "timestamp",
          "type": "uint256"
        }
      ],
      "name": "AuthNFTSignerInvalidated",
      "type": "event"
    },
    {
      "anonymous": false,
      "inputs": [
        {
          "indexed": true,
          "internalType": "address",
          "name": "operator",
          "type": "address"
        },
        {
          "indexed": true,
          "internalType": "address",
          "name": "receiver",
          "type": "address"
        },
        {
          "indexed": true,
          "internalType": "address",
          "name": "twoFAsigner",
          "type": "address"
        },
        {
          "indexed": false,
          "internalType": "uint256",
          "name": "id",
          "type": "uint256"
        }
      ],
      "name": "AuthNFTTransfered",
      "type": "event"
    },
    {
      "anonymous": false,
      "inputs": [
        {
          "indexed": true,
          "internalType": "address",
          "name": "owner",
          "type": "address"
        },
        {
          "indexed": true,
          "internalType": "address",
          "name": "signer",
          "type": "address"
        },
        {
          "indexed": false,
          "internalType": "string",
          "name": "ipfsPath",
          "type": "string"
        }
      ],
      "name": "AuthNFTUpdated",
      "type": "event"
    },
    {
      "anonymous": false,
      "inputs": [
        {
          "indexed": true,
          "internalType": "address",
          "name": "owner",
          "type": "address"
        },
        {
          "indexed": false,
          "internalType": "address",
          "name": "invalidator",
          "type": "address"
        }
      ],
      "name": "EmergencyInvalidatorSet",
      "type": "event"
    },
    {
      "anonymous": false,
      "inputs": [
        {
          "indexed": true,
          "internalType": "address",
          "name": "operator",
          "type": "address"
        },
        {
          "indexed": true,
          "internalType": "address",
          "name": "to",
          "type": "address"
        },
        {
          "indexed": false,
          "internalType": "uint256",
          "name": "amount",
          "type": "uint256"
        }
      ],
      "name": "EthersWithdrawn",
      "type": "event"
    },
    {
      "anonymous": false,
      "inputs": [
        {
          "indexed": true,
          "internalType": "address",
          "name": "previousOwner",
          "type": "address"
        },
        {
          "indexed": true,
          "internalType": "address",
          "name": "newOwner",
          "type": "address"
        }
      ],
      "name": "OwnershipTransferred",
      "type": "event"
    },
    {
      "anonymous": false,
      "inputs": [
        {
          "indexed": true,
          "internalType": "address",
          "name": "from",
          "type": "address"
        },
        {
          "indexed": true,
          "internalType": "address",
          "name": "to",
          "type": "address"
        },
        {
          "indexed": true,
          "internalType": "uint256",
          "name": "tokenId",
          "type": "uint256"
        }
      ],
      "name": "Transfer",
      "type": "event"
    },
    {
      "inputs": [
        {
          "internalType": "address",
          "name": "signer",
          "type": "address"
        },
        {
          "internalType": "string",
          "name": "name",
          "type": "string"
        },
        {
          "internalType": "string",
          "name": "configUrl",
          "type": "string"
        },
        {
          "internalType": "string",
          "name": "url",
          "type": "string"
        }
      ],
      "name": "addChallengeProvider",
      "outputs": [],
      "stateMutability": "nonpayable",
      "type": "function"
    },
    {
      "inputs": [
        {
          "internalType": "address",
          "name": "addr",
          "type": "address"
        }
      ],
      "name": "addressHasValidNFT",
      "outputs": [
        {
          "internalType": "bool",
          "name": "",
          "type": "bool"
        }
      ],
      "stateMutability": "view",
      "type": "function"
    },
    {
      "inputs": [
        {
          "internalType": "address",
          "name": "to",
          "type": "address"
        },
        {
          "internalType": "uint256",
          "name": "tokenId",
          "type": "uint256"
        }
      ],
      "name": "approve",
      "outputs": [],
      "stateMutability": "nonpayable",
      "type": "function"
    },
    {
      "inputs": [
        {
          "internalType": "address",
          "name": "owner",
          "type": "address"
        }
      ],
      "name": "balanceOf",
      "outputs": [
        {
          "internalType": "uint256",
          "name": "",
          "type": "uint256"
        }
      ],
      "stateMutability": "view",
      "type": "function"
    },
    {
      "inputs": [
        {
          "internalType": "address",
          "name": "signer",
          "type": "address"
        }
      ],
      "name": "canSign",
      "outputs": [
        {
          "internalType": "bool",
          "name": "",
          "type": "bool"
        }
      ],
      "stateMutability": "view",
      "type": "function"
    },
    {
      "inputs": [
        {
          "internalType": "address",
          "name": "signer",
          "type": "address"
        },
        {
          "internalType": "uint256",
          "name": "timestamp",
          "type": "uint256"
        }
      ],
      "name": "canSignAt",
      "outputs": [
        {
          "internalType": "bool",
          "name": "",
          "type": "bool"
        }
      ],
      "stateMutability": "view",
      "type": "function"
    },
    {
      "inputs": [
        {
          "internalType": "string",
          "name": "username",
          "type": "string"
        }
      ],
      "name": "changeUsername",
      "outputs": [],
      "stateMutability": "nonpayable",
      "type": "function"
    },
    {
      "inputs": [
        {
          "internalType": "uint256",
          "name": "tokenID",
          "type": "uint256"
        }
      ],
      "name": "checkInvalidated",
      "outputs": [
        {
          "internalType": "bool",
          "name": "",
          "type": "bool"
        }
      ],
      "stateMutability": "view",
      "type": "function"
    },
    {
      "inputs": [
        {
          "internalType": "address",
          "name": "ownerToInvalidate",
          "type": "address"
        }
      ],
      "name": "emergencyInvalidateNFT",
      "outputs": [],
      "stateMutability": "nonpayable",
      "type": "function"
    },
    {
      "inputs": [
        {
          "internalType": "uint256",
          "name": "tokenId",
          "type": "uint256"
        }
      ],
      "name": "getApproved",
      "outputs": [
        {
          "internalType": "address",
          "name": "",
          "type": "address"
        }
      ],
      "stateMutability": "view",
      "type": "function"
    },
    {
      "inputs": [
        {
          "internalType": "address",
          "name": "signer",
          "type": "address"
        }
      ],
      "name": "getChallengeProviderConfigUrl",
      "outputs": [
        {
          "internalType": "string",
          "name": "",
          "type": "string"
        }
      ],
      "stateMutability": "view",
      "type": "function"
    },
    {
      "inputs": [
        {
          "internalType": "address",
          "name": "signer",
          "type": "address"
        }
      ],
      "name": "getChallengeProviderName",
      "outputs": [
        {
          "internalType": "string",
          "name": "",
          "type": "string"
        }
      ],
      "stateMutability": "view",
      "type": "function"
    },
    {
      "inputs": [
        {
          "internalType": "address",
          "name": "signer",
          "type": "address"
        }
      ],
      "name": "getChallengeProviderUrl",
      "outputs": [
        {
          "internalType": "string",
          "name": "",
          "type": "string"
        }
      ],
      "stateMutability": "view",
      "type": "function"
    },
    {
      "inputs": [],
      "name": "getChallengeProviders",
      "outputs": [
        {
          "internalType": "address[]",
          "name": "",
          "type": "address[]"
        }
      ],
      "stateMutability": "view",
      "type": "function"
    },
    {
      "inputs": [
        {
          "internalType": "uint256",
          "name": "tokenID",
          "type": "uint256"
        }
      ],
      "name": "getEmergencyAddress",
      "outputs": [
        {
          "internalType": "address",
          "name": "",
          "type": "address"
        }
      ],
      "stateMutability": "view",
      "type": "function"
    },
    {
      "inputs": [
        {
          "internalType": "uint256",
          "name": "tokenID",
          "type": "uint256"
        }
      ],
      "name": "getProfilePictureToken",
      "outputs": [
        {
          "internalType": "string",
          "name": "",
          "type": "string"
        }
      ],
      "stateMutability": "view",
      "type": "function"
    },
    {
      "inputs": [
        {
          "internalType": "uint256",
          "name": "tokenID",
          "type": "uint256"
        }
      ],
      "name": "getUsername",
      "outputs": [
        {
          "internalType": "string",
          "name": "",
          "type": "string"
        }
      ],
      "stateMutability": "view",
      "type": "function"
    },
    {
      "inputs": [
        {
          "internalType": "uint256",
          "name": "tokenID",
          "type": "uint256"
        }
      ],
      "name": "hasEmergencyAddress",
      "outputs": [
        {
          "internalType": "bool",
          "name": "",
          "type": "bool"
        }
      ],
      "stateMutability": "view",
      "type": "function"
    },
    {
      "inputs": [
        {
          "internalType": "address",
          "name": "addr",
          "type": "address"
        }
      ],
      "name": "hasMinted",
      "outputs": [
        {
          "internalType": "bool",
          "name": "",
          "type": "bool"
        }
      ],
      "stateMutability": "view",
      "type": "function"
    },
    {
      "inputs": [
        {
          "internalType": "address",
          "name": "signer",
          "type": "address"
        }
      ],
      "name": "invalidateChallengeProvider",
      "outputs": [],
      "stateMutability": "nonpayable",
      "type": "function"
    },
    {
      "inputs": [],
      "name": "invalidateMyNFT",
      "outputs": [],
      "stateMutability": "nonpayable",
      "type": "function"
    },
    {
      "inputs": [
        {
          "internalType": "address",
          "name": "owner",
          "type": "address"
        },
        {
          "internalType": "address",
          "name": "operator",
          "type": "address"
        }
      ],
      "name": "isApprovedForAll",
      "outputs": [
        {
          "internalType": "bool",
          "name": "",
          "type": "bool"
        }
      ],
      "stateMutability": "view",
      "type": "function"
    },
    {
      "inputs": [
        {
          "internalType": "address",
          "name": "signer",
          "type": "address"
        },
        {
          "internalType": "string",
          "name": "username",
          "type": "string"
        },
        {
          "internalType": "string",
          "name": "ipfsPath",
          "type": "string"
        },
        {
          "internalType": "uint8",
          "name": "v",
          "type": "uint8"
        },
        {
          "internalType": "bytes32",
          "name": "r",
          "type": "bytes32"
        },
        {
          "internalType": "bytes32",
          "name": "s",
          "type": "bytes32"
        }
      ],
      "name": "mintAuthNFT",
      "outputs": [
        {
          "internalType": "uint256",
          "name": "",
          "type": "uint256"
        }
      ],
      "stateMutability": "nonpayable",
      "type": "function"
    },
    {
      "inputs": [
        {
          "internalType": "address",
          "name": "addr",
          "type": "address"
        }
      ],
      "name": "mintedBy",
      "outputs": [
        {
          "internalType": "uint256",
          "name": "",
          "type": "uint256"
        }
      ],
      "stateMutability": "view",
      "type": "function"
    },
    {
      "inputs": [],
      "name": "mintingEnabled",
      "outputs": [
        {
          "internalType": "bool",
          "name": "",
          "type": "bool"
        }
      ],
      "stateMutability": "view",
      "type": "function"
    },
    {
      "inputs": [],
      "name": "name",
      "outputs": [
        {
          "internalType": "string",
          "name": "",
          "type": "string"
        }
      ],
      "stateMutability": "view",
      "type": "function"
    },
    {
      "inputs": [],
      "name": "owner",
      "outputs": [
        {
          "internalType": "address",
          "name": "",
          "type": "address"
        }
      ],
      "stateMutability": "view",
      "type": "function"
    },
    {
      "inputs": [
        {
          "internalType": "uint256[]",
          "name": "tokenIDs",
          "type": "uint256[]"
        },
        {
          "internalType": "string",
          "name": "reason",
          "type": "string"
        }
      ],
      "name": "ownerInvalidateNFTs",
      "outputs": [],
      "stateMutability": "nonpayable",
      "type": "function"
    },
    {
      "inputs": [
        {
          "internalType": "uint256",
          "name": "tokenId",
          "type": "uint256"
        }
      ],
      "name": "ownerOf",
      "outputs": [
        {
          "internalType": "address",
          "name": "",
          "type": "address"
        }
      ],
      "stateMutability": "view",
      "type": "function"
    },
    {
      "inputs": [
        {
          "internalType": "string",
          "name": "message",
          "type": "string"
        },
        {
          "internalType": "uint8",
          "name": "v",
          "type": "uint8"
        },
        {
          "internalType": "bytes32",
          "name": "r",
          "type": "bytes32"
        },
        {
          "internalType": "bytes32",
          "name": "s",
          "type": "bytes32"
        }
      ],
      "name": "recoverSigner",
      "outputs": [
        {
          "internalType": "address",
          "name": "signer",
          "type": "address"
        }
      ],
      "stateMutability": "pure",
      "type": "function"
    },
    {
      "inputs": [],
      "name": "renounceOwnership",
      "outputs": [],
      "stateMutability": "nonpayable",
      "type": "function"
    },
    {
      "inputs": [
        {
          "internalType": "address",
          "name": "from",
          "type": "address"
        },
        {
          "internalType": "address",
          "name": "to",
          "type": "address"
        },
        {
          "internalType": "uint256",
          "name": "tokenId",
          "type": "uint256"
        }
      ],
      "name": "safeTransferFrom",
      "outputs": [],
      "stateMutability": "nonpayable",
      "type": "function"
    },
    {
      "inputs": [
        {
          "internalType": "address",
          "name": "from",
          "type": "address"
        },
        {
          "internalType": "address",
          "name": "to",
          "type": "address"
        },
        {
          "internalType": "uint256",
          "name": "tokenId",
          "type": "uint256"
        },
        {
          "internalType": "bytes",
          "name": "_data",
          "type": "bytes"
        }
      ],
      "name": "safeTransferFrom",
      "outputs": [],
      "stateMutability": "nonpayable",
      "type": "function"
    },
    {
      "inputs": [
        {
          "internalType": "address",
          "name": "operator",
          "type": "address"
        },
        {
          "internalType": "bool",
          "name": "approved",
          "type": "bool"
        }
      ],
      "name": "setApprovalForAll",
      "outputs": [],
      "stateMutability": "nonpayable",
      "type": "function"
    },
    {
      "inputs": [
        {
          "internalType": "address",
          "name": "emergencyAddress",
          "type": "address"
        }
      ],
      "name": "setEmergencyAddressForever",
      "outputs": [],
      "stateMutability": "nonpayable",
      "type": "function"
    },
    {
      "inputs": [
        {
          "internalType": "address",
          "name": "erc721",
          "type": "address"
        },
        {
          "internalType": "address",
          "name": "erc1155",
          "type": "address"
        },
        {
          "internalType": "uint256",
          "name": "tokenId",
          "type": "uint256"
        }
      ],
      "name": "setProfilePicture",
      "outputs": [],
      "stateMutability": "nonpayable",
      "type": "function"
    },
    {
      "inputs": [
        {
          "internalType": "address",
          "name": "signer",
          "type": "address"
        },
        {
          "internalType": "string",
          "name": "hash",
          "type": "string"
        },
        {
          "internalType": "uint8",
          "name": "v",
          "type": "uint8"
        },
        {
          "internalType": "bytes32",
          "name": "r",
          "type": "bytes32"
        },
        {
          "internalType": "bytes32",
          "name": "s",
          "type": "bytes32"
        }
      ],
      "name": "signatureValid",
      "outputs": [
        {
          "internalType": "bool",
          "name": "",
          "type": "bool"
        }
      ],
      "stateMutability": "view",
      "type": "function"
    },
    {
      "inputs": [
        {
          "internalType": "bytes4",
          "name": "interfaceId",
          "type": "bytes4"
        }
      ],
      "name": "supportsInterface",
      "outputs": [
        {
          "internalType": "bool",
          "name": "",
          "type": "bool"
        }
      ],
      "stateMutability": "view",
      "type": "function"
    },
    {
      "inputs": [],
      "name": "symbol",
      "outputs": [
        {
          "internalType": "string",
          "name": "",
          "type": "string"
        }
      ],
      "stateMutability": "view",
      "type": "function"
    },
    {
      "inputs": [
        {
          "internalType": "bool",
          "name": "enabled",
          "type": "bool"
        }
      ],
      "name": "toggleMintingEnabled",
      "outputs": [],
      "stateMutability": "nonpayable",
      "type": "function"
    },
    {
      "inputs": [
        {
          "internalType": "uint256",
          "name": "tokenID",
          "type": "uint256"
        }
      ],
      "name": "tokenURI",
      "outputs": [
        {
          "internalType": "string",
          "name": "",
          "type": "string"
        }
      ],
      "stateMutability": "view",
      "type": "function"
    },
    {
      "inputs": [
        {
          "internalType": "address",
          "name": "from",
          "type": "address"
        },
        {
          "internalType": "address",
          "name": "to",
          "type": "address"
        },
        {
          "internalType": "uint256",
          "name": "tokenId",
          "type": "uint256"
        }
      ],
      "name": "transferFrom",
      "outputs": [],
      "stateMutability": "nonpayable",
      "type": "function"
    },
    {
      "inputs": [
        {
          "internalType": "address",
          "name": "newOwner",
          "type": "address"
        }
      ],
      "name": "transferOwnership",
      "outputs": [],
      "stateMutability": "nonpayable",
      "type": "function"
    },
    {
      "inputs": [
        {
          "internalType": "address",
          "name": "signer",
          "type": "address"
        },
        {
          "internalType": "string",
          "name": "ipfsPath",
          "type": "string"
        },
        {
          "internalType": "uint256",
          "name": "tokenId",
          "type": "uint256"
        },
        {
          "internalType": "uint8",
          "name": "v",
          "type": "uint8"
        },
        {
          "internalType": "bytes32",
          "name": "r",
          "type": "bytes32"
        },
        {
          "internalType": "bytes32",
          "name": "s",
          "type": "bytes32"
        }
      ],
      "name": "updateAuthNFT",
      "outputs": [],
      "stateMutability": "nonpayable",
      "type": "function"
    },
    {
      "inputs": [
        {
          "internalType": "uint256",
          "name": "amount",
          "type": "uint256"
        },
        {
          "internalType": "address payable",
          "name": "to",
          "type": "address"
        }
      ],
      "name": "withdrawEthers",
      "outputs": [],
      "stateMutability": "nonpayable",
      "type": "function"
    }
  ],
  "bytecode": "0x60806040526001600c60006101000a81548160ff0219169083151502179055503480156200002c57600080fd5b506040518060400160405280600d81526020017f4d61785472617820312e312e30000000000000000000000000000000000000008152506040518060400160405280600781526020017f4d617854726178000000000000000000000000000000000000000000000000008152508160009080519060200190620000b1929190620001c1565b508060019080519060200190620000ca929190620001c1565b505050620000ed620000e1620000f360201b60201c565b620000fb60201b60201c565b620002d6565b600033905090565b6000600660009054906101000a900473ffffffffffffffffffffffffffffffffffffffff16905081600660006101000a81548173ffffffffffffffffffffffffffffffffffffffff021916908373ffffffffffffffffffffffffffffffffffffffff1602179055508173ffffffffffffffffffffffffffffffffffffffff168173ffffffffffffffffffffffffffffffffffffffff167f8be0079c531659141344cd1fd0a4f28419497f9722a3daafe3b4186f6b6457e060405160405180910390a35050565b828054620001cf9062000271565b90600052602060002090601f016020900481019282620001f357600085556200023f565b82601f106200020e57805160ff19168380011785556200023f565b828001600101855582156200023f579182015b828111156200023e57825182559160200191906001019062000221565b5b5090506200024e919062000252565b5090565b5b808211156200026d57600081600090555060010162000253565b5090565b600060028204905060018216806200028a57607f821691505b60208210811415620002a157620002a0620002a7565b5b50919050565b7f4e487b7100000000000000000000000000000000000000000000000000000000600052602260045260246000fd5b615f1080620002e66000396000f3fe608060405234801561001057600080fd5b506004361061027f5760003560e01c806370a082311161015c578063a22cb465116100ce578063cbbeb7a911610087578063cbbeb7a914610816578063d6ff505f14610846578063e985e9c514610876578063f18d18cc146108a6578063f2fde38b146108d6578063fe8adae1146108f25761027f565b8063a22cb46514610732578063b88d4fde1461074e578063c42287611461076a578063c691cc8c1461079a578063c6f13e97146107b6578063c87b56dd146107e65761027f565b80638da5cb5b116101205780638da5cb5b1461065c578063926069be1461067a57806395d89b41146106965780639c54f944146106b45780639dba9aa1146106e45780639fd6db12146107145761027f565b806370a08231146105a6578063715018a6146105d657806377c846af146105e05780637ef30520146105fc5780638ac71b041461062c5761027f565b80632a6e5e11116101f557806342842e0e116101b957806342842e0e146104ae5780635228f5bf146104ca57806360e15735146104fa5780636352211e1461052a57806364e4535b1461055a5780636b3739d21461058a5761027f565b80632a6e5e11146103e657806338e21cce146104025780633c3a4cb4146104325780633cef28d2146104625780633e663ef6146104925761027f565b8063095ea7b311610247578063095ea7b31461033a578063147c37c2146103565780631e88c3571461036057806323b872dd1461037c578063245176d3146103985780632785e937146103b65761027f565b806301ffc9a71461028457806302a93a6e146102b45780630656e1df146102d057806306fdde03146102ec578063081812fc1461030a575b600080fd5b61029e60048036038101906102999190614652565b61090e565b6040516102ab919061558f565b60405180910390f35b6102ce60048036038101906102c9919061412c565b6109f0565b005b6102ea60048036038101906102e591906141ba565b610b64565b005b6102f4610daa565b60405161030191906155ef565b60405180910390f35b610324600480360381019061031f9190614778565b610e3c565b6040516103319190615552565b60405180910390f35b610354600480360381019061034f9190614554565b610ec1565b005b61035e610f06565b005b61037a60048036038101906103759190614424565b61109d565b005b610396600480360381019061039191906141ba565b611509565b005b6103a061154f565b6040516103ad919061556d565b60405180910390f35b6103d060048036038101906103cb91906146fd565b6115dd565b6040516103dd9190615552565b60405180910390f35b61040060048036038101906103fb91906147ca565b61178c565b005b61041c6004803603810190610417919061412c565b6118a1565b604051610429919061558f565b60405180910390f35b61044c6004803603810190610447919061412c565b6118f2565b60405161045991906155ef565b60405180910390f35b61047c6004803603810190610477919061412c565b6119c6565b60405161048991906159a1565b60405180910390f35b6104ac60048036038101906104a791906142c0565b611a0f565b005b6104c860048036038101906104c391906141ba565b611d57565b005b6104e460048036038101906104df919061412c565b611d9d565b6040516104f1919061558f565b60405180910390f35b610514600480360381019061050f919061436b565b611dc9565b60405161052191906159a1565b60405180910390f35b610544600480360381019061053f9190614778565b6121eb565b6040516105519190615552565b60405180910390f35b610574600480360381019061056f9190614778565b61229d565b60405161058191906155ef565b60405180910390f35b6105a4600480360381019061059f9190614590565b61254d565b005b6105c060048036038101906105bb919061412c565b61266e565b6040516105cd91906159a1565b60405180910390f35b6105de612726565b005b6105fa60048036038101906105f5919061467b565b6127ae565b005b6106166004803603810190610611919061412c565b612932565b604051610623919061558f565b60405180910390f35b61064660048036038101906106419190614778565b6129ce565b604051610653919061558f565b60405180910390f35b6106646129fb565b6040516106719190615552565b60405180910390f35b610694600480360381019061068f919061412c565b612a25565b005b61069e612c86565b6040516106ab91906155ef565b60405180910390f35b6106ce60048036038101906106c99190614778565b612d18565b6040516106db9190615552565b60405180910390f35b6106fe60048036038101906106f99190614554565b612d58565b60405161070b919061558f565b60405180910390f35b61071c612e8e565b604051610729919061558f565b60405180910390f35b61074c60048036038101906107479190614284565b612ea5565b005b61076860048036038101906107639190614209565b612eea565b005b610784600480360381019061077f919061412c565b612f31565b60405161079191906155ef565b60405180910390f35b6107b460048036038101906107af919061412c565b613005565b005b6107d060048036038101906107cb919061412c565b613315565b6040516107dd91906155ef565b60405180910390f35b61080060048036038101906107fb9190614778565b6133e9565b60405161080d91906155ef565b60405180910390f35b610830600480360381019061082b9190614778565b61356f565b60405161083d919061558f565b60405180910390f35b610860600480360381019061085b91906144c5565b6135de565b60405161086d919061558f565b60405180910390f35b610890600480360381019061088b919061417e565b613625565b60405161089d919061558f565b60405180910390f35b6108c060048036038101906108bb9190614778565b6136b9565b6040516108cd91906155ef565b60405180910390f35b6108f060048036038101906108eb919061412c565b613761565b005b61090c60048036038101906109079190614600565b613859565b005b60007f80ac58cd000000000000000000000000000000000000000000000000000000007bffffffffffffffffffffffffffffffffffffffffffffffffffffffff1916827bffffffffffffffffffffffffffffffffffffffffffffffffffffffff191614806109d957507f5b5e139f000000000000000000000000000000000000000000000000000000007bffffffffffffffffffffffffffffffffffffffffffffffffffffffff1916827bffffffffffffffffffffffffffffffffffffffffffffffffffffffff1916145b806109e957506109e8826138f2565b5b9050919050565b60003073ffffffffffffffffffffffffffffffffffffffff16633cef28d2836040518263ffffffff1660e01b8152600401610a2b9190615552565b60206040518083038186803b158015610a4357600080fd5b505afa158015610a57573d6000803e3d6000fd5b505050506040513d601f19601f82011682018060405250810190610a7b91906147a1565b90503373ffffffffffffffffffffffffffffffffffffffff166009600083815260200190815260200160002060020160019054906101000a900473ffffffffffffffffffffffffffffffffffffffff1673ffffffffffffffffffffffffffffffffffffffff1614610b21576040517f08c379a0000000000000000000000000000000000000000000000000000000008152600401610b1890615721565b60405180910390fd5b610b60816040518060400160405280601681526020017f456d657267656e637920696e76616c69646174696f6e0000000000000000000081525061395c565b5050565b610b6d336118a1565b610bac576040517f08c379a0000000000000000000000000000000000000000000000000000000008152600401610ba390615841565b60405180910390fd5b600073ffffffffffffffffffffffffffffffffffffffff168373ffffffffffffffffffffffffffffffffffffffff161480610c135750600073ffffffffffffffffffffffffffffffffffffffff168273ffffffffffffffffffffffffffffffffffffffff16145b610c52576040517f08c379a0000000000000000000000000000000000000000000000000000000008152600401610c4990615901565b60405180910390fd5b60003073ffffffffffffffffffffffffffffffffffffffff16633cef28d2336040518263ffffffff1660e01b8152600401610c8d9190615552565b60206040518083038186803b158015610ca557600080fd5b505afa158015610cb9573d6000803e3d6000fd5b505050506040513d601f19601f82011682018060405250810190610cdd91906147a1565b9050816009600083815260200190815260200160002060060181905550836009600083815260200190815260200160002060040160006101000a81548173ffffffffffffffffffffffffffffffffffffffff021916908373ffffffffffffffffffffffffffffffffffffffff160217905550826009600083815260200190815260200160002060050160006101000a81548173ffffffffffffffffffffffffffffffffffffffff021916908373ffffffffffffffffffffffffffffffffffffffff16021790555050505050565b606060008054610db990615cf1565b80601f0160208091040260200160405190810160405280929190818152602001828054610de590615cf1565b8015610e325780601f10610e0757610100808354040283529160200191610e32565b820191906000526020600020905b815481529060010190602001808311610e1557829003601f168201915b5050505050905090565b6000610e4782613a10565b610e86576040517f08c379a0000000000000000000000000000000000000000000000000000000008152600401610e7d90615881565b60405180910390fd5b6004600083815260200190815260200160002060009054906101000a900473ffffffffffffffffffffffffffffffffffffffff169050919050565b6000610f02576040517f08c379a0000000000000000000000000000000000000000000000000000000008152600401610ef990615681565b60405180910390fd5b5050565b3073ffffffffffffffffffffffffffffffffffffffff166338e21cce336040518263ffffffff1660e01b8152600401610f3f9190615552565b60206040518083038186803b158015610f5757600080fd5b505afa158015610f6b573d6000803e3d6000fd5b505050506040513d601f19601f82011682018060405250810190610f8f9190614629565b610fce576040517f08c379a0000000000000000000000000000000000000000000000000000000008152600401610fc590615841565b60405180910390fd5b60003073ffffffffffffffffffffffffffffffffffffffff16633cef28d2336040518263ffffffff1660e01b81526004016110099190615552565b60206040518083038186803b15801561102157600080fd5b505afa158015611035573d6000803e3d6000fd5b505050506040513d601f19601f8201168201806040525081019061105991906147a1565b905061109a816040518060400160405280601181526020017f53656c662d696e76616c69646174696f6e00000000000000000000000000000081525061395c565b50565b85858484848473ffffffffffffffffffffffffffffffffffffffff166110c5858585856115dd565b73ffffffffffffffffffffffffffffffffffffffff161461111b576040517f08c379a000000000000000000000000000000000000000000000000000000000815260040161111290615741565b60405180910390fd5b3073ffffffffffffffffffffffffffffffffffffffff166338e21cce336040518263ffffffff1660e01b81526004016111549190615552565b60206040518083038186803b15801561116c57600080fd5b505afa158015611180573d6000803e3d6000fd5b505050506040513d601f19601f820116820180604052508101906111a49190614629565b6111e3576040517f08c379a00000000000000000000000000000000000000000000000000000000081526004016111da90615841565b60405180910390fd5b8a3073ffffffffffffffffffffffffffffffffffffffff16637ef30520826040518263ffffffff1660e01b815260040161121d9190615552565b60206040518083038186803b15801561123557600080fd5b505afa158015611249573d6000803e3d6000fd5b505050506040513d601f19601f8201168201806040525081019061126d9190614629565b6112ac576040517f08c379a00000000000000000000000000000000000000000000000000000000081526004016112a3906158e1565b60405180910390fd5b3073ffffffffffffffffffffffffffffffffffffffff16636352211e8b6040518263ffffffff1660e01b81526004016112e591906159a1565b60206040518083038186803b1580156112fd57600080fd5b505afa158015611311573d6000803e3d6000fd5b505050506040513d601f19601f820116820180604052508101906113359190614155565b73ffffffffffffffffffffffffffffffffffffffff163373ffffffffffffffffffffffffffffffffffffffff16146113a2576040517f08c379a0000000000000000000000000000000000000000000000000000000008152600401611399906156c1565b60405180910390fd5b3073ffffffffffffffffffffffffffffffffffffffff16638ac71b048b6040518263ffffffff1660e01b81526004016113db91906159a1565b60206040518083038186803b1580156113f357600080fd5b505afa158015611407573d6000803e3d6000fd5b505050506040513d601f19601f8201168201806040525081019061142b9190614629565b1561146b576040517f08c379a000000000000000000000000000000000000000000000000000000000815260040161146290615941565b60405180910390fd5b8a600960008c81526020019081526020016000206001019080519060200190611495929190613e35565b508b73ffffffffffffffffffffffffffffffffffffffff163373ffffffffffffffffffffffffffffffffffffffff167f23ba8eee24e41bf014f4644bd93f2ead7955b08444549685dd12fb2e2e0c65a78d6040516114f391906155ef565b60405180910390a3505050505050505050505050565b600061154a576040517f08c379a000000000000000000000000000000000000000000000000000000000815260040161154190615681565b60405180910390fd5b505050565b6060600a8054806020026020016040519081016040528092919081815260200182805480156115d357602002820191906000526020600020905b8160009054906101000a900473ffffffffffffffffffffffffffffffffffffffff1673ffffffffffffffffffffffffffffffffffffffff1681526020019060010190808311611589575b5050505050905090565b6000806040518060400160405280602081526020017f19457468657265756d205369676e6564204d6573736167653a0a303030303030815250905060008087519050603983019150620f423f81111561163557600080fd5b600080620186a090505b600081146116db57600081846116559190615b53565b9050600081141561167f57600083141561167e57600a826116769190615b53565b91505061163f565b5b828061168a90615d23565b93505081816116999190615b84565b846116a49190615bde565b9350600a826116b39190615b53565b91506030816116c29190615afd565b905084806116cf90615d23565b9550508085535061163f565b60008214156116ed57601b91506116fd565b601a826116fa9190615afd565b91505b8185526000858b6040516020016117159291906154f5565b6040516020818303038152906040528051906020012090506001818b8b8b6040516000815260200160405260405161175094939291906155aa565b6020604051602081039080840390855afa158015611772573d6000803e3d6000fd5b505050602060405103519650505050505050949350505050565b611794613a7c565b73ffffffffffffffffffffffffffffffffffffffff166117b26129fb565b73ffffffffffffffffffffffffffffffffffffffff1614611808576040517f08c379a00000000000000000000000000000000000000000000000000000000081526004016117ff906158a1565b60405180910390fd5b611831828273ffffffffffffffffffffffffffffffffffffffff16613a8490919063ffffffff16565b8073ffffffffffffffffffffffffffffffffffffffff16611850613a7c565b73ffffffffffffffffffffffffffffffffffffffff167f372bb9ce23c45af0229f3ad425305ebadfb790c0b0453fa3077a02d7d8c987bb8460405161189591906159a1565b60405180910390a35050565b60006118eb600860008473ffffffffffffffffffffffffffffffffffffffff1673ffffffffffffffffffffffffffffffffffffffff16815260200190815260200160002054613a10565b9050919050565b6060600b60008373ffffffffffffffffffffffffffffffffffffffff1673ffffffffffffffffffffffffffffffffffffffff168152602001908152602001600020600001805461194190615cf1565b80601f016020809104026020016040519081016040528092919081815260200182805461196d90615cf1565b80156119ba5780601f1061198f576101008083540402835291602001916119ba565b820191906000526020600020905b81548152906001019060200180831161199d57829003601f168201915b50505050509050919050565b6000600860008373ffffffffffffffffffffffffffffffffffffffff1673ffffffffffffffffffffffffffffffffffffffff168152602001908152602001600020549050919050565b611a17613a7c565b73ffffffffffffffffffffffffffffffffffffffff16611a356129fb565b73ffffffffffffffffffffffffffffffffffffffff1614611a8b576040517f08c379a0000000000000000000000000000000000000000000000000000000008152600401611a82906158a1565b60405180910390fd5b6000600b60008673ffffffffffffffffffffffffffffffffffffffff1673ffffffffffffffffffffffffffffffffffffffff1681526020019081526020016000206003015414611b10576040517f08c379a0000000000000000000000000000000000000000000000000000000008152600401611b07906156e1565b60405180910390fd5b6000600b60008673ffffffffffffffffffffffffffffffffffffffff1673ffffffffffffffffffffffffffffffffffffffff168152602001908152602001600020905083600b60008773ffffffffffffffffffffffffffffffffffffffff1673ffffffffffffffffffffffffffffffffffffffff1681526020019081526020016000206000019080519060200190611ba9929190613e35565b5042600b60008773ffffffffffffffffffffffffffffffffffffffff1673ffffffffffffffffffffffffffffffffffffffff1681526020019081526020016000206003018190555082600b60008773ffffffffffffffffffffffffffffffffffffffff1673ffffffffffffffffffffffffffffffffffffffff1681526020019081526020016000206002019080519060200190611c47929190613e35565b5081600b60008773ffffffffffffffffffffffffffffffffffffffff1673ffffffffffffffffffffffffffffffffffffffff1681526020019081526020016000206001019080519060200190611c9e929190613e35565b50600a859080600181540180825580915050600190039060005260206000200160009091909190916101000a81548173ffffffffffffffffffffffffffffffffffffffff021916908373ffffffffffffffffffffffffffffffffffffffff1602179055508473ffffffffffffffffffffffffffffffffffffffff167fc7da609f9d6a478b78547f935d667444113e7b50762c9206dd18efabb10639ae85604051611d4891906155ef565b60405180910390a25050505050565b6000611d98576040517f08c379a0000000000000000000000000000000000000000000000000000000008152600401611d8f90615681565b60405180910390fd5b505050565b6000611da8826118a1565b8015611dc25750611dc0611dbb836119c6565b6129ce565b155b9050919050565b6000863073ffffffffffffffffffffffffffffffffffffffff16637ef30520826040518263ffffffff1660e01b8152600401611e059190615552565b60206040518083038186803b158015611e1d57600080fd5b505afa158015611e31573d6000803e3d6000fd5b505050506040513d601f19601f82011682018060405250810190611e559190614629565b611e94576040517f08c379a0000000000000000000000000000000000000000000000000000000008152600401611e8b906158e1565b60405180910390fd5b87868686868473ffffffffffffffffffffffffffffffffffffffff16611ebc858585856115dd565b73ffffffffffffffffffffffffffffffffffffffff1614611f12576040517f08c379a0000000000000000000000000000000000000000000000000000000008152600401611f0990615741565b60405180910390fd5b611f1b336118a1565b15611f5b576040517f08c379a0000000000000000000000000000000000000000000000000000000008152600401611f5290615821565b60405180910390fd5b600c60009054906101000a900460ff16611faa576040517f08c379a0000000000000000000000000000000000000000000000000000000008152600401611fa190615961565b60405180910390fd5b611fb46007613b78565b6000611fc06007613b8e565b9050611fcc3382613b9c565b80600860003373ffffffffffffffffffffffffffffffffffffffff1673ffffffffffffffffffffffffffffffffffffffff1681526020019081526020016000208190555060006009600083815260200190815260200160002090508c600960008481526020019081526020016000206001019080519060200190612051929190613e35565b508d60096000848152602001908152602001600020600301908051906020019061207c929190613e35565b5060006009600084815260200190815260200160002060020160006101000a81548160ff021916908315150217905550336009600084815260200190815260200160002060000160006101000a81548173ffffffffffffffffffffffffffffffffffffffff021916908373ffffffffffffffffffffffffffffffffffffffff160217905550306009600084815260200190815260200160002060040160006101000a81548173ffffffffffffffffffffffffffffffffffffffff021916908373ffffffffffffffffffffffffffffffffffffffff1602179055508160096000848152602001908152602001600020600601819055508e73ffffffffffffffffffffffffffffffffffffffff163373ffffffffffffffffffffffffffffffffffffffff167fcbf527a191e30ef47bdfd31a29dc21a4ec1b8ffe59414dc588f836c022941ab5846040516121ce91906159a1565b60405180910390a381985050505050505050509695505050505050565b6000806002600084815260200190815260200160002060009054906101000a900473ffffffffffffffffffffffffffffffffffffffff169050600073ffffffffffffffffffffffffffffffffffffffff168173ffffffffffffffffffffffffffffffffffffffff161415612294576040517f08c379a000000000000000000000000000000000000000000000000000000000815260040161228b90615801565b60405180910390fd5b80915050919050565b6060600073ffffffffffffffffffffffffffffffffffffffff166009600084815260200190815260200160002060040160009054906101000a900473ffffffffffffffffffffffffffffffffffffffff1673ffffffffffffffffffffffffffffffffffffffff16146123ea576009600083815260200190815260200160002060040160009054906101000a900473ffffffffffffffffffffffffffffffffffffffff1673ffffffffffffffffffffffffffffffffffffffff1663c87b56dd60096000858152602001908152602001600020600601546040518263ffffffff1660e01b815260040161238e91906159a1565b60006040518083038186803b1580156123a657600080fd5b505afa1580156123ba573d6000803e3d6000fd5b505050506040513d6000823e3d601f19601f820116820180604052508101906123e391906146bc565b9050612548565b600073ffffffffffffffffffffffffffffffffffffffff166009600084815260200190815260200160002060050160009054906101000a900473ffffffffffffffffffffffffffffffffffffffff1673ffffffffffffffffffffffffffffffffffffffff1614612535576009600083815260200190815260200160002060050160009054906101000a900473ffffffffffffffffffffffffffffffffffffffff1673ffffffffffffffffffffffffffffffffffffffff16630e89341c60096000858152602001908152602001600020600601546040518263ffffffff1660e01b81526004016124d991906159a1565b60006040518083038186803b1580156124f157600080fd5b505afa158015612505573d6000803e3d6000fd5b505050506040513d6000823e3d601f19601f8201168201806040525081019061252e91906146bc565b9050612548565b6040518060200160405280600081525090505b919050565b612555613a7c565b73ffffffffffffffffffffffffffffffffffffffff166125736129fb565b73ffffffffffffffffffffffffffffffffffffffff16146125c9576040517f08c379a00000000000000000000000000000000000000000000000000000000081526004016125c0906158a1565b60405180910390fd5b60005b8383905081101561266857612655848483818110612613577f4e487b7100000000000000000000000000000000000000000000000000000000600052603260045260246000fd5b905060200201356040518060400160405280601181526020017f53656c662d696e76616c69646174696f6e00000000000000000000000000000081525061395c565b808061266090615d23565b9150506125cc565b50505050565b60008073ffffffffffffffffffffffffffffffffffffffff168273ffffffffffffffffffffffffffffffffffffffff1614156126df576040517f08c379a00000000000000000000000000000000000000000000000000000000081526004016126d6906157e1565b60405180910390fd5b600360008373ffffffffffffffffffffffffffffffffffffffff1673ffffffffffffffffffffffffffffffffffffffff168152602001908152602001600020549050919050565b61272e613a7c565b73ffffffffffffffffffffffffffffffffffffffff1661274c6129fb565b73ffffffffffffffffffffffffffffffffffffffff16146127a2576040517f08c379a0000000000000000000000000000000000000000000000000000000008152600401612799906158a1565b60405180910390fd5b6127ac6000613d6a565b565b3073ffffffffffffffffffffffffffffffffffffffff166338e21cce336040518263ffffffff1660e01b81526004016127e79190615552565b60206040518083038186803b1580156127ff57600080fd5b505afa158015612813573d6000803e3d6000fd5b505050506040513d601f19601f820116820180604052508101906128379190614629565b612876576040517f08c379a000000000000000000000000000000000000000000000000000000000815260040161286d90615841565b60405180910390fd5b60003073ffffffffffffffffffffffffffffffffffffffff16633cef28d2336040518263ffffffff1660e01b81526004016128b19190615552565b60206040518083038186803b1580156128c957600080fd5b505afa1580156128dd573d6000803e3d6000fd5b505050506040513d601f19601f8201168201806040525081019061290191906147a1565b90508160096000838152602001908152602001600020600301908051906020019061292d929190613e35565b505050565b600080600b60008473ffffffffffffffffffffffffffffffffffffffff1673ffffffffffffffffffffffffffffffffffffffff168152602001908152602001600020600301541180156129c757506000600b60008473ffffffffffffffffffffffffffffffffffffffff1673ffffffffffffffffffffffffffffffffffffffff16815260200190815260200160002060040154145b9050919050565b60006009600083815260200190815260200160002060020160009054906101000a900460ff169050919050565b6000600660009054906101000a900473ffffffffffffffffffffffffffffffffffffffff16905090565b612a2d613a7c565b73ffffffffffffffffffffffffffffffffffffffff16612a4b6129fb565b73ffffffffffffffffffffffffffffffffffffffff1614612aa1576040517f08c379a0000000000000000000000000000000000000000000000000000000008152600401612a98906158a1565b60405180910390fd5b6000600b60008373ffffffffffffffffffffffffffffffffffffffff1673ffffffffffffffffffffffffffffffffffffffff1681526020019081526020016000206003015411612b26576040517f08c379a0000000000000000000000000000000000000000000000000000000008152600401612b1d90615981565b60405180910390fd5b6000600b60008373ffffffffffffffffffffffffffffffffffffffff1673ffffffffffffffffffffffffffffffffffffffff1681526020019081526020016000206004015414612bab576040517f08c379a0000000000000000000000000000000000000000000000000000000008152600401612ba290615761565b60405180910390fd5b42600b60008373ffffffffffffffffffffffffffffffffffffffff1673ffffffffffffffffffffffffffffffffffffffff168152602001908152602001600020600401819055508073ffffffffffffffffffffffffffffffffffffffff167fba707c6b73357cd3a70e2d939ec97bd3167d4e6fd55d4ee797663bd57bd7e823600b60008473ffffffffffffffffffffffffffffffffffffffff1673ffffffffffffffffffffffffffffffffffffffff16815260200190815260200160002060000142604051612c7b929190615611565b60405180910390a250565b606060018054612c9590615cf1565b80601f0160208091040260200160405190810160405280929190818152602001828054612cc190615cf1565b8015612d0e5780601f10612ce357610100808354040283529160200191612d0e565b820191906000526020600020905b815481529060010190602001808311612cf157829003601f168201915b5050505050905090565b60006009600083815260200190815260200160002060020160019054906101000a900473ffffffffffffffffffffffffffffffffffffffff169050919050565b600080600b60008573ffffffffffffffffffffffffffffffffffffffff1673ffffffffffffffffffffffffffffffffffffffff16815260200190815260200160002060030154118015612e3957506000600b60008573ffffffffffffffffffffffffffffffffffffffff1673ffffffffffffffffffffffffffffffffffffffff168152602001908152602001600020600401541480612e38575081600b60008573ffffffffffffffffffffffffffffffffffffffff1673ffffffffffffffffffffffffffffffffffffffff16815260200190815260200160002060040154115b5b8015612e86575081600b60008573ffffffffffffffffffffffffffffffffffffffff1673ffffffffffffffffffffffffffffffffffffffff16815260200190815260200160002060030154105b905092915050565b6000600c60009054906101000a900460ff16905090565b6000612ee6576040517f08c379a0000000000000000000000000000000000000000000000000000000008152600401612edd90615681565b60405180910390fd5b5050565b6000612f2b576040517f08c379a0000000000000000000000000000000000000000000000000000000008152600401612f2290615681565b60405180910390fd5b50505050565b6060600b60008373ffffffffffffffffffffffffffffffffffffffff1673ffffffffffffffffffffffffffffffffffffffff1681526020019081526020016000206001018054612f8090615cf1565b80601f0160208091040260200160405190810160405280929190818152602001828054612fac90615cf1565b8015612ff95780601f10612fce57610100808354040283529160200191612ff9565b820191906000526020600020905b815481529060010190602001808311612fdc57829003601f168201915b50505050509050919050565b3073ffffffffffffffffffffffffffffffffffffffff166338e21cce336040518263ffffffff1660e01b815260040161303e9190615552565b60206040518083038186803b15801561305657600080fd5b505afa15801561306a573d6000803e3d6000fd5b505050506040513d601f19601f8201168201806040525081019061308e9190614629565b6130cd576040517f08c379a00000000000000000000000000000000000000000000000000000000081526004016130c490615841565b60405180910390fd5b3373ffffffffffffffffffffffffffffffffffffffff168173ffffffffffffffffffffffffffffffffffffffff16141561313c576040517f08c379a000000000000000000000000000000000000000000000000000000000815260040161313390615661565b60405180910390fd5b60003073ffffffffffffffffffffffffffffffffffffffff16633cef28d2336040518263ffffffff1660e01b81526004016131779190615552565b60206040518083038186803b15801561318f57600080fd5b505afa1580156131a3573d6000803e3d6000fd5b505050506040513d601f19601f820116820180604052508101906131c791906147a1565b9050600073ffffffffffffffffffffffffffffffffffffffff166009600083815260200190815260200160002060020160019054906101000a900473ffffffffffffffffffffffffffffffffffffffff1673ffffffffffffffffffffffffffffffffffffffff161461326e576040517f08c379a0000000000000000000000000000000000000000000000000000000008152600401613265906157c1565b60405180910390fd5b816009600083815260200190815260200160002060020160016101000a81548173ffffffffffffffffffffffffffffffffffffffff021916908373ffffffffffffffffffffffffffffffffffffffff1602179055503373ffffffffffffffffffffffffffffffffffffffff167fb71f63f2c9398d970fd0297492ceb2143d6c94b43b619f4ae5d0e817108a20a4836040516133099190615552565b60405180910390a25050565b6060600b60008373ffffffffffffffffffffffffffffffffffffffff1673ffffffffffffffffffffffffffffffffffffffff168152602001908152602001600020600201805461336490615cf1565b80601f016020809104026020016040519081016040528092919081815260200182805461339090615cf1565b80156133dd5780601f106133b2576101008083540402835291602001916133dd565b820191906000526020600020905b8154815290600101906020018083116133c057829003601f168201915b50505050509050919050565b60606133f482613a10565b613433576040517f08c379a000000000000000000000000000000000000000000000000000000000815260040161342a906158c1565b60405180910390fd5b3073ffffffffffffffffffffffffffffffffffffffff16638ac71b04836040518263ffffffff1660e01b815260040161346c91906159a1565b60206040518083038186803b15801561348457600080fd5b505afa158015613498573d6000803e3d6000fd5b505050506040513d601f19601f820116820180604052508101906134bc9190614629565b156134fc576040517f08c379a00000000000000000000000000000000000000000000000000000000081526004016134f390615921565b60405180910390fd5b6040518060400160405280600781526020017f697066733a2f2f0000000000000000000000000000000000000000000000000081525060096000848152602001908152602001600020600101604051602001613559929190615519565b6040516020818303038152906040529050919050565b60008073ffffffffffffffffffffffffffffffffffffffff166009600084815260200190815260200160002060020160019054906101000a900473ffffffffffffffffffffffffffffffffffffffff1673ffffffffffffffffffffffffffffffffffffffff1614159050919050565b60008573ffffffffffffffffffffffffffffffffffffffff16613603868686866115dd565b73ffffffffffffffffffffffffffffffffffffffff1614905095945050505050565b6000600560008473ffffffffffffffffffffffffffffffffffffffff1673ffffffffffffffffffffffffffffffffffffffff16815260200190815260200160002060008373ffffffffffffffffffffffffffffffffffffffff1673ffffffffffffffffffffffffffffffffffffffff16815260200190815260200160002060009054906101000a900460ff16905092915050565b60606009600083815260200190815260200160002060030180546136dc90615cf1565b80601f016020809104026020016040519081016040528092919081815260200182805461370890615cf1565b80156137555780601f1061372a57610100808354040283529160200191613755565b820191906000526020600020905b81548152906001019060200180831161373857829003601f168201915b50505050509050919050565b613769613a7c565b73ffffffffffffffffffffffffffffffffffffffff166137876129fb565b73ffffffffffffffffffffffffffffffffffffffff16146137dd576040517f08c379a00000000000000000000000000000000000000000000000000000000081526004016137d4906158a1565b60405180910390fd5b600073ffffffffffffffffffffffffffffffffffffffff168173ffffffffffffffffffffffffffffffffffffffff16141561384d576040517f08c379a0000000000000000000000000000000000000000000000000000000008152600401613844906156a1565b60405180910390fd5b61385681613d6a565b50565b613861613a7c565b73ffffffffffffffffffffffffffffffffffffffff1661387f6129fb565b73ffffffffffffffffffffffffffffffffffffffff16146138d5576040517f08c379a00000000000000000000000000000000000000000000000000000000081526004016138cc906158a1565b60405180910390fd5b80600c60006101000a81548160ff02191690831515021790555050565b60007f01ffc9a7000000000000000000000000000000000000000000000000000000007bffffffffffffffffffffffffffffffffffffffffffffffffffffffff1916827bffffffffffffffffffffffffffffffffffffffffffffffffffffffff1916149050919050565b61396582613a10565b6139a4576040517f08c379a000000000000000000000000000000000000000000000000000000000815260040161399b90615641565b60405180910390fd5b60016009600084815260200190815260200160002060020160006101000a81548160ff0219169083151502179055507f8f0a68c07cca4c1d678bce83b0ee80d9bf0a4da9b2f545dad9fd0b389519e0388282604051613a049291906159bc565b60405180910390a15050565b60008073ffffffffffffffffffffffffffffffffffffffff166002600084815260200190815260200160002060009054906101000a900473ffffffffffffffffffffffffffffffffffffffff1673ffffffffffffffffffffffffffffffffffffffff1614159050919050565b600033905090565b80471015613ac7576040517f08c379a0000000000000000000000000000000000000000000000000000000008152600401613abe906157a1565b60405180910390fd5b60008273ffffffffffffffffffffffffffffffffffffffff1682604051613aed9061553d565b60006040518083038185875af1925050503d8060008114613b2a576040519150601f19603f3d011682016040523d82523d6000602084013e613b2f565b606091505b5050905080613b73576040517f08c379a0000000000000000000000000000000000000000000000000000000008152600401613b6a90615781565b60405180910390fd5b505050565b6001816000016000828254019250508190555050565b600081600001549050919050565b600073ffffffffffffffffffffffffffffffffffffffff168273ffffffffffffffffffffffffffffffffffffffff161415613c0c576040517f08c379a0000000000000000000000000000000000000000000000000000000008152600401613c0390615861565b60405180910390fd5b613c1581613a10565b15613c55576040517f08c379a0000000000000000000000000000000000000000000000000000000008152600401613c4c90615701565b60405180910390fd5b613c6160008383613e30565b6001600360008473ffffffffffffffffffffffffffffffffffffffff1673ffffffffffffffffffffffffffffffffffffffff1681526020019081526020016000206000828254613cb19190615afd565b92505081905550816002600083815260200190815260200160002060006101000a81548173ffffffffffffffffffffffffffffffffffffffff021916908373ffffffffffffffffffffffffffffffffffffffff160217905550808273ffffffffffffffffffffffffffffffffffffffff16600073ffffffffffffffffffffffffffffffffffffffff167fddf252ad1be2c89b69c2b068fc378daa952ba7f163c4a11628f55a4df523b3ef60405160405180910390a45050565b6000600660009054906101000a900473ffffffffffffffffffffffffffffffffffffffff16905081600660006101000a81548173ffffffffffffffffffffffffffffffffffffffff021916908373ffffffffffffffffffffffffffffffffffffffff1602179055508173ffffffffffffffffffffffffffffffffffffffff168173ffffffffffffffffffffffffffffffffffffffff167f8be0079c531659141344cd1fd0a4f28419497f9722a3daafe3b4186f6b6457e060405160405180910390a35050565b505050565b828054613e4190615cf1565b90600052602060002090601f016020900481019282613e635760008555613eaa565b82601f10613e7c57805160ff1916838001178555613eaa565b82800160010185558215613eaa579182015b82811115613ea9578251825591602001919060010190613e8e565b5b509050613eb79190613ebb565b5090565b5b80821115613ed4576000816000905550600101613ebc565b5090565b6000613eeb613ee684615a1d565b6159ec565b905082815260208101848484011115613f0357600080fd5b613f0e848285615caf565b509392505050565b6000613f29613f2484615a4d565b6159ec565b905082815260208101848484011115613f4157600080fd5b613f4c848285615caf565b509392505050565b6000613f67613f6284615a4d565b6159ec565b905082815260208101848484011115613f7f57600080fd5b613f8a848285615cbe565b509392505050565b600081359050613fa181615e39565b92915050565b600081519050613fb681615e39565b92915050565b600081359050613fcb81615e50565b92915050565b60008083601f840112613fe357600080fd5b8235905067ffffffffffffffff811115613ffc57600080fd5b60208301915083602082028301111561401457600080fd5b9250929050565b60008135905061402a81615e67565b92915050565b60008151905061403f81615e67565b92915050565b60008135905061405481615e7e565b92915050565b60008135905061406981615e95565b92915050565b600082601f83011261408057600080fd5b8135614090848260208601613ed8565b91505092915050565b600082601f8301126140aa57600080fd5b81356140ba848260208601613f16565b91505092915050565b600082601f8301126140d457600080fd5b81516140e4848260208601613f54565b91505092915050565b6000813590506140fc81615eac565b92915050565b60008151905061411181615eac565b92915050565b60008135905061412681615ec3565b92915050565b60006020828403121561413e57600080fd5b600061414c84828501613f92565b91505092915050565b60006020828403121561416757600080fd5b600061417584828501613fa7565b91505092915050565b6000806040838503121561419157600080fd5b600061419f85828601613f92565b92505060206141b085828601613f92565b9150509250929050565b6000806000606084860312156141cf57600080fd5b60006141dd86828701613f92565b93505060206141ee86828701613f92565b92505060406141ff868287016140ed565b9150509250925092565b6000806000806080858703121561421f57600080fd5b600061422d87828801613f92565b945050602061423e87828801613f92565b935050604061424f878288016140ed565b925050606085013567ffffffffffffffff81111561426c57600080fd5b6142788782880161406f565b91505092959194509250565b6000806040838503121561429757600080fd5b60006142a585828601613f92565b92505060206142b68582860161401b565b9150509250929050565b600080600080608085870312156142d657600080fd5b60006142e487828801613f92565b945050602085013567ffffffffffffffff81111561430157600080fd5b61430d87828801614099565b935050604085013567ffffffffffffffff81111561432a57600080fd5b61433687828801614099565b925050606085013567ffffffffffffffff81111561435357600080fd5b61435f87828801614099565b91505092959194509250565b60008060008060008060c0878903121561438457600080fd5b600061439289828a01613f92565b965050602087013567ffffffffffffffff8111156143af57600080fd5b6143bb89828a01614099565b955050604087013567ffffffffffffffff8111156143d857600080fd5b6143e489828a01614099565b94505060606143f589828a01614117565b935050608061440689828a01614045565b92505060a061441789828a01614045565b9150509295509295509295565b60008060008060008060c0878903121561443d57600080fd5b600061444b89828a01613f92565b965050602087013567ffffffffffffffff81111561446857600080fd5b61447489828a01614099565b955050604061448589828a016140ed565b945050606061449689828a01614117565b93505060806144a789828a01614045565b92505060a06144b889828a01614045565b9150509295509295509295565b600080600080600060a086880312156144dd57600080fd5b60006144eb88828901613f92565b955050602086013567ffffffffffffffff81111561450857600080fd5b61451488828901614099565b945050604061452588828901614117565b935050606061453688828901614045565b925050608061454788828901614045565b9150509295509295909350565b6000806040838503121561456757600080fd5b600061457585828601613f92565b9250506020614586858286016140ed565b9150509250929050565b6000806000604084860312156145a557600080fd5b600084013567ffffffffffffffff8111156145bf57600080fd5b6145cb86828701613fd1565b9350935050602084013567ffffffffffffffff8111156145ea57600080fd5b6145f686828701614099565b9150509250925092565b60006020828403121561461257600080fd5b60006146208482850161401b565b91505092915050565b60006020828403121561463b57600080fd5b600061464984828501614030565b91505092915050565b60006020828403121561466457600080fd5b60006146728482850161405a565b91505092915050565b60006020828403121561468d57600080fd5b600082013567ffffffffffffffff8111156146a757600080fd5b6146b384828501614099565b91505092915050565b6000602082840312156146ce57600080fd5b600082015167ffffffffffffffff8111156146e857600080fd5b6146f4848285016140c3565b91505092915050565b6000806000806080858703121561471357600080fd5b600085013567ffffffffffffffff81111561472d57600080fd5b61473987828801614099565b945050602061474a87828801614117565b935050604061475b87828801614045565b925050606061476c87828801614045565b91505092959194509250565b60006020828403121561478a57600080fd5b6000614798848285016140ed565b91505092915050565b6000602082840312156147b357600080fd5b60006147c184828501614102565b91505092915050565b600080604083850312156147dd57600080fd5b60006147eb858286016140ed565b92505060206147fc85828601613fbc565b9150509250929050565b6000614812838361481e565b60208301905092915050565b61482781615c12565b82525050565b61483681615c12565b82525050565b600061484782615aa2565b6148518185615ac5565b935061485c83615a7d565b8060005b8381101561488d5781516148748882614806565b975061487f83615ab8565b925050600181019050614860565b5085935050505092915050565b6148a381615c36565b82525050565b6148b281615c42565b82525050565b60006148c382615aad565b6148cd8185615ae1565b93506148dd818560208601615cbe565b6148e681615e28565b840191505092915050565b60006148fc82615aad565b6149068185615af2565b9350614916818560208601615cbe565b80840191505092915050565b6000815461492f81615cf1565b6149398186615ae1565b94506001821660008114614954576001811461496657614999565b60ff1983168652602086019350614999565b61496f85615a8d565b60005b8381101561499157815481890152600182019150602081019050614972565b808801955050505b50505092915050565b600081546149af81615cf1565b6149b98186615af2565b945060018216600081146149d457600181146149e557614a18565b60ff19831686528186019350614a18565b6149ee85615a8d565b60005b83811015614a10578154818901526001820191506020810190506149f1565b838801955050505b50505092915050565b6000614a2e603283615ae1565b91507f4d6178547261783a20496e76616c6964617465207265717565737420666f722060008301527f6e6f6e2d6578697374656e7420746f6b656e00000000000000000000000000006020830152604082019050919050565b6000614a94602a83615ae1565b91507f4d6178547261783a20596f752063616e27742063686f736520796f7572206f7760008301527f6e206164647265737321000000000000000000000000000000000000000000006020830152604082019050919050565b6000614afa604583615ae1565b91507f4d6178547261783a205472616e73666572696e6720417574682d4e465473206960008301527f73206e6f7420706f737369626c652120506c6561736520636865636b206f757260208301527f20464151730000000000000000000000000000000000000000000000000000006040830152606082019050919050565b6000614b86602683615ae1565b91507f4f776e61626c653a206e6577206f776e657220697320746865207a65726f206160008301527f64647265737300000000000000000000000000000000000000000000000000006020830152604082019050919050565b6000614bec602d83615ae1565b91507f4d6178547261783a20596f7520617265206e6f7420746865206f776e6572206f60008301527f66207468697320746f6b656e21000000000000000000000000000000000000006020830152604082019050919050565b6000614c52601e83615ae1565b91507f4d6178547261783a205369676e657220616c72656164792065786973747300006000830152602082019050919050565b6000614c92601c83615ae1565b91507f4552433732313a20746f6b656e20616c7265616479206d696e746564000000006000830152602082019050919050565b6000614cd2603a83615ae1565b91507f4d6178547261783a20596f7520617265206e6f742074686520656d657267656e60008301527f6379206164647265737320666f722074686973206f776e6572210000000000006020830152604082019050919050565b6000614d38601883615ae1565b91507f4d6178547261783a2057726f6e67207369676e617475726500000000000000006000830152602082019050919050565b6000614d78602383615ae1565b91507f4d6178547261783a205369676e657220616c726561647920696e76616c69646160008301527f74656400000000000000000000000000000000000000000000000000000000006020830152604082019050919050565b6000614dde603a83615ae1565b91507f416464726573733a20756e61626c6520746f2073656e642076616c75652c207260008301527f6563697069656e74206d617920686176652072657665727465640000000000006020830152604082019050919050565b6000614e44601d83615ae1565b91507f416464726573733a20696e73756666696369656e742062616c616e63650000006000830152602082019050919050565b6000614e84606883615ae1565b91507f4d6178547261783a20596f7520616c726561647920686176652073657420796f60008301527f757220656d657267656e637920616464726573732e20546869732063616e206260208301527f6520646f6e65206f6e6c79206f6e63652e20506c6561736520636865636b206f60408301527f75722046415173210000000000000000000000000000000000000000000000006060830152608082019050919050565b6000614f36602a83615ae1565b91507f4552433732313a2062616c616e636520717565727920666f7220746865207a6560008301527f726f2061646472657373000000000000000000000000000000000000000000006020830152604082019050919050565b6000614f9c602983615ae1565b91507f4552433732313a206f776e657220717565727920666f72206e6f6e657869737460008301527f656e7420746f6b656e00000000000000000000000000000000000000000000006020830152604082019050919050565b6000615002606283615ae1565b91507f4d6178547261783a20596f75206861766520616c7265616479206d696e74656460008301527f2061204d61785472617820746f6b656e2e20546f20646f206368616e6765732c60208301527f20706c656173652075706461746520796f7572204d61785472617820746f6b6560408301527f6e210000000000000000000000000000000000000000000000000000000000006060830152608082019050919050565b60006150b4603483615ae1565b91507f4d6178547261783a20596f7520646f6e27742068617665206d696e746564207960008301527f657420616e204d61785472617820746f6b656e210000000000000000000000006020830152604082019050919050565b600061511a602083615ae1565b91507f4552433732313a206d696e7420746f20746865207a65726f20616464726573736000830152602082019050919050565b600061515a602c83615ae1565b91507f4552433732313a20617070726f76656420717565727920666f72206e6f6e657860008301527f697374656e7420746f6b656e00000000000000000000000000000000000000006020830152604082019050919050565b60006151c0602083615ae1565b91507f4f776e61626c653a2063616c6c6572206973206e6f7420746865206f776e65726000830152602082019050919050565b6000615200602f83615ae1565b91507f4552433732314d657461646174613a2055524920717565727920666f72206e6f60008301527f6e6578697374656e7420746f6b656e00000000000000000000000000000000006020830152604082019050919050565b6000615266603d83615ae1565b91507f4d6178547261783a2054686973207369676e6572206973206e6f742076616c6960008301527f642120506c6561736520726570656174207468652070726f63657373210000006020830152604082019050919050565b60006152cc600083615ad6565b9150600082019050919050565b60006152e6604b83615ae1565b91507f4d6178547261783a20506c656173652070726f76696465206f6e6c792045524360008301527f373231206f72204552433131353120636f6e747261637420666f722070726f6660208301527f696c6520706963747572650000000000000000000000000000000000000000006040830152606082019050919050565b6000615372602383615ae1565b91507f4d6178547261783a205468697320746f6b656e20697320696e76616c6964617460008301527f65642100000000000000000000000000000000000000000000000000000000006020830152604082019050919050565b60006153d8602483615ae1565b91507f4d6178547261783a205468697320746f6b656e2077617320696e76616c69646160008301527f74656421000000000000000000000000000000000000000000000000000000006020830152604082019050919050565b600061543e603e83615ae1565b91507f4d6178547261783a204d696e74696e672069732063757272656e746c7920646960008301527f7361626c65642e20506c656173652074727920616761696e206c6174657200006020830152604082019050919050565b60006154a4601e83615ae1565b91507f4d6178547261783a205369676e657220646f6573206e6f7420657869737400006000830152602082019050919050565b6154e081615c98565b82525050565b6154ef81615ca2565b82525050565b600061550182856148f1565b915061550d82846148f1565b91508190509392505050565b600061552582856148f1565b915061553182846149a2565b91508190509392505050565b6000615548826152bf565b9150819050919050565b6000602082019050615567600083018461482d565b92915050565b60006020820190508181036000830152615587818461483c565b905092915050565b60006020820190506155a4600083018461489a565b92915050565b60006080820190506155bf60008301876148a9565b6155cc60208301866154e6565b6155d960408301856148a9565b6155e660608301846148a9565b95945050505050565b6000602082019050818103600083015261560981846148b8565b905092915050565b6000604082019050818103600083015261562b8185614922565b905061563a60208301846154d7565b9392505050565b6000602082019050818103600083015261565a81614a21565b9050919050565b6000602082019050818103600083015261567a81614a87565b9050919050565b6000602082019050818103600083015261569a81614aed565b9050919050565b600060208201905081810360008301526156ba81614b79565b9050919050565b600060208201905081810360008301526156da81614bdf565b9050919050565b600060208201905081810360008301526156fa81614c45565b9050919050565b6000602082019050818103600083015261571a81614c85565b9050919050565b6000602082019050818103600083015261573a81614cc5565b9050919050565b6000602082019050818103600083015261575a81614d2b565b9050919050565b6000602082019050818103600083015261577a81614d6b565b9050919050565b6000602082019050818103600083015261579a81614dd1565b9050919050565b600060208201905081810360008301526157ba81614e37565b9050919050565b600060208201905081810360008301526157da81614e77565b9050919050565b600060208201905081810360008301526157fa81614f29565b9050919050565b6000602082019050818103600083015261581a81614f8f565b9050919050565b6000602082019050818103600083015261583a81614ff5565b9050919050565b6000602082019050818103600083015261585a816150a7565b9050919050565b6000602082019050818103600083015261587a8161510d565b9050919050565b6000602082019050818103600083015261589a8161514d565b9050919050565b600060208201905081810360008301526158ba816151b3565b9050919050565b600060208201905081810360008301526158da816151f3565b9050919050565b600060208201905081810360008301526158fa81615259565b9050919050565b6000602082019050818103600083015261591a816152d9565b9050919050565b6000602082019050818103600083015261593a81615365565b9050919050565b6000602082019050818103600083015261595a816153cb565b9050919050565b6000602082019050818103600083015261597a81615431565b9050919050565b6000602082019050818103600083015261599a81615497565b9050919050565b60006020820190506159b660008301846154d7565b92915050565b60006040820190506159d160008301856154d7565b81810360208301526159e381846148b8565b90509392505050565b6000604051905081810181811067ffffffffffffffff82111715615a1357615a12615df9565b5b8060405250919050565b600067ffffffffffffffff821115615a3857615a37615df9565b5b601f19601f8301169050602081019050919050565b600067ffffffffffffffff821115615a6857615a67615df9565b5b601f19601f8301169050602081019050919050565b6000819050602082019050919050565b60008190508160005260206000209050919050565b600081519050919050565b600081519050919050565b6000602082019050919050565b600082825260208201905092915050565b600081905092915050565b600082825260208201905092915050565b600081905092915050565b6000615b0882615c98565b9150615b1383615c98565b9250827fffffffffffffffffffffffffffffffffffffffffffffffffffffffffffffffff03821115615b4857615b47615d6c565b5b828201905092915050565b6000615b5e82615c98565b9150615b6983615c98565b925082615b7957615b78615d9b565b5b828204905092915050565b6000615b8f82615c98565b9150615b9a83615c98565b9250817fffffffffffffffffffffffffffffffffffffffffffffffffffffffffffffffff0483118215151615615bd357615bd2615d6c565b5b828202905092915050565b6000615be982615c98565b9150615bf483615c98565b925082821015615c0757615c06615d6c565b5b828203905092915050565b6000615c1d82615c78565b9050919050565b6000615c2f82615c78565b9050919050565b60008115159050919050565b6000819050919050565b60007fffffffff0000000000000000000000000000000000000000000000000000000082169050919050565b600073ffffffffffffffffffffffffffffffffffffffff82169050919050565b6000819050919050565b600060ff82169050919050565b82818337600083830152505050565b60005b83811015615cdc578082015181840152602081019050615cc1565b83811115615ceb576000848401525b50505050565b60006002820490506001821680615d0957607f821691505b60208210811415615d1d57615d1c615dca565b5b50919050565b6000615d2e82615c98565b91507fffffffffffffffffffffffffffffffffffffffffffffffffffffffffffffffff821415615d6157615d60615d6c565b5b600182019050919050565b7f4e487b7100000000000000000000000000000000000000000000000000000000600052601160045260246000fd5b7f4e487b7100000000000000000000000000000000000000000000000000000000600052601260045260246000fd5b7f4e487b7100000000000000000000000000000000000000000000000000000000600052602260045260246000fd5b7f4e487b7100000000000000000000000000000000000000000000000000000000600052604160045260246000fd5b6000601f19601f8301169050919050565b615e4281615c12565b8114615e4d57600080fd5b50565b615e5981615c24565b8114615e6457600080fd5b50565b615e7081615c36565b8114615e7b57600080fd5b50565b615e8781615c42565b8114615e9257600080fd5b50565b615e9e81615c4c565b8114615ea957600080fd5b50565b615eb581615c98565b8114615ec057600080fd5b50565b615ecc81615ca2565b8114615ed757600080fd5b5056fea264697066735822122047cb1ab1a53fb78cace71d6a92f7a31d6a259b6c911b4f3c60c8bdf575241d8664736f6c63430008000033",
  "linkReferences": {},
  "deployedLinkReferences": {}
}